{
	"Token bound account/ERC6551Account.sol": {
		"ERC6551Account": {
			"abi": [
				{
					"inputs": [
						{
							"internalType": "address",
							"name": "to",
							"type": "address"
						},
						{
							"internalType": "uint256",
							"name": "value",
							"type": "uint256"
						},
						{
							"internalType": "bytes",
							"name": "data",
							"type": "bytes"
						},
						{
							"internalType": "uint8",
							"name": "operation",
							"type": "uint8"
						}
					],
					"name": "execute",
					"outputs": [
						{
							"internalType": "bytes",
							"name": "result",
							"type": "bytes"
						}
					],
					"stateMutability": "payable",
					"type": "function"
				},
				{
					"inputs": [
						{
							"internalType": "bytes32",
							"name": "hash",
							"type": "bytes32"
						},
						{
							"internalType": "bytes",
							"name": "signature",
							"type": "bytes"
						}
					],
					"name": "isValidSignature",
					"outputs": [
						{
							"internalType": "bytes4",
							"name": "magicValue",
							"type": "bytes4"
						}
					],
					"stateMutability": "view",
					"type": "function"
				},
				{
					"inputs": [
						{
							"internalType": "address",
							"name": "signer",
							"type": "address"
						},
						{
							"internalType": "bytes",
							"name": "",
							"type": "bytes"
						}
					],
					"name": "isValidSigner",
					"outputs": [
						{
							"internalType": "bytes4",
							"name": "",
							"type": "bytes4"
						}
					],
					"stateMutability": "view",
					"type": "function"
				},
				{
					"inputs": [],
					"name": "owner",
					"outputs": [
						{
							"internalType": "address",
							"name": "",
							"type": "address"
						}
					],
					"stateMutability": "view",
					"type": "function"
				},
				{
					"inputs": [],
					"name": "state",
					"outputs": [
						{
							"internalType": "uint256",
							"name": "",
							"type": "uint256"
						}
					],
					"stateMutability": "view",
					"type": "function"
				},
				{
					"inputs": [
						{
							"internalType": "bytes4",
							"name": "interfaceId",
							"type": "bytes4"
						}
					],
					"name": "supportsInterface",
					"outputs": [
						{
							"internalType": "bool",
							"name": "",
							"type": "bool"
						}
					],
					"stateMutability": "pure",
					"type": "function"
				},
				{
					"inputs": [],
					"name": "token",
					"outputs": [
						{
							"internalType": "uint256",
							"name": "",
							"type": "uint256"
						},
						{
							"internalType": "address",
							"name": "",
							"type": "address"
						},
						{
							"internalType": "uint256",
							"name": "",
							"type": "uint256"
						}
					],
					"stateMutability": "view",
					"type": "function"
				},
				{
					"stateMutability": "payable",
					"type": "receive"
				}
			],
			"devdoc": {
				"kind": "dev",
				"methods": {
					"isValidSignature(bytes32,bytes)": {
						"details": "Should return whether the signature provided is valid for the provided data",
						"params": {
							"hash": "Hash of the data to be signed",
							"signature": "Signature byte array associated with _data"
						}
					},
					"supportsInterface(bytes4)": {
						"details": "Returns true if this contract implements the interface defined by `interfaceId`. See the corresponding https://eips.ethereum.org/EIPS/eip-165#how-interfaces-are-identified[EIP section] to learn more about how these ids are created. This function call must use less than 30 000 gas."
					}
				},
				"version": 1
			},
			"evm": {
				"assembly": "    /* \"Token bound account/ERC6551Account.sol\":911:3246  contract ERC6551Account is IERC165, IERC1271, IERC6551Account, IERC6551Executable {... */\n  mstore(0x40, 0x80)\n  callvalue\n  dup1\n  iszero\n  tag_1\n  jumpi\n  0x00\n  dup1\n  revert\ntag_1:\n  pop\n  dataSize(sub_0)\n  dup1\n  dataOffset(sub_0)\n  0x00\n  codecopy\n  0x00\n  return\nstop\n\nsub_0: assembly {\n        /* \"Token bound account/ERC6551Account.sol\":911:3246  contract ERC6551Account is IERC165, IERC1271, IERC6551Account, IERC6551Executable {... */\n      mstore(0x40, 0x80)\n      jumpi(tag_1, lt(calldatasize, 0x04))\n      shr(0xe0, calldataload(0x00))\n      dup1\n      0x523e3260\n      gt\n      tag_10\n      jumpi\n      dup1\n      0x523e3260\n      eq\n      tag_6\n      jumpi\n      dup1\n      0x8da5cb5b\n      eq\n      tag_7\n      jumpi\n      dup1\n      0xc19d93fb\n      eq\n      tag_8\n      jumpi\n      dup1\n      0xfc0c546a\n      eq\n      tag_9\n      jumpi\n      jump(tag_2)\n    tag_10:\n      dup1\n      0x01ffc9a7\n      eq\n      tag_3\n      jumpi\n      dup1\n      0x1626ba7e\n      eq\n      tag_4\n      jumpi\n      dup1\n      0x51945447\n      eq\n      tag_5\n      jumpi\n      jump(tag_2)\n    tag_1:\n      jumpi(tag_2, calldatasize)\n      stop\n    tag_2:\n      0x00\n      dup1\n      revert\n        /* \"Token bound account/ERC6551Account.sol\":2262:2545  function supportsInterface(bytes4 interfaceId) external pure virtual returns (bool) {... */\n    tag_3:\n      callvalue\n      dup1\n      iszero\n      tag_13\n      jumpi\n      0x00\n      dup1\n      revert\n    tag_13:\n      pop\n      tag_14\n      0x04\n      dup1\n      calldatasize\n      sub\n      dup2\n      add\n      swap1\n      tag_15\n      swap2\n      swap1\n      tag_16\n      jump\t// in\n    tag_15:\n      tag_17\n      jump\t// in\n    tag_14:\n      mload(0x40)\n      tag_18\n      swap2\n      swap1\n      tag_19\n      jump\t// in\n    tag_18:\n      mload(0x40)\n      dup1\n      swap2\n      sub\n      swap1\n      return\n        /* \"Token bound account/ERC6551Account.sol\":1881:2254  function isValidSignature(bytes32 hash, bytes memory signature)... */\n    tag_4:\n      callvalue\n      dup1\n      iszero\n      tag_20\n      jumpi\n      0x00\n      dup1\n      revert\n    tag_20:\n      pop\n      tag_21\n      0x04\n      dup1\n      calldatasize\n      sub\n      dup2\n      add\n      swap1\n      tag_22\n      swap2\n      swap1\n      tag_23\n      jump\t// in\n    tag_22:\n      tag_24\n      jump\t// in\n    tag_21:\n      mload(0x40)\n      tag_25\n      swap2\n      swap1\n      tag_26\n      jump\t// in\n    tag_25:\n      mload(0x40)\n      dup1\n      swap2\n      sub\n      swap1\n      return\n        /* \"Token bound account/ERC6551Account.sol\":1066:1624  function execute(address to, uint256 value, bytes calldata data, uint8 operation)... */\n    tag_5:\n      tag_27\n      0x04\n      dup1\n      calldatasize\n      sub\n      dup2\n      add\n      swap1\n      tag_28\n      swap2\n      swap1\n      tag_29\n      jump\t// in\n    tag_28:\n      tag_30\n      jump\t// in\n    tag_27:\n      mload(0x40)\n      tag_31\n      swap2\n      swap1\n      tag_32\n      jump\t// in\n    tag_31:\n      mload(0x40)\n      dup1\n      swap2\n      sub\n      swap1\n      return\n        /* \"Token bound account/ERC6551Account.sol\":1632:1873  function isValidSigner(address signer, bytes calldata) external view virtual returns (bytes4) {... */\n    tag_6:\n      callvalue\n      dup1\n      iszero\n      tag_33\n      jumpi\n      0x00\n      dup1\n      revert\n    tag_33:\n      pop\n      tag_34\n      0x04\n      dup1\n      calldatasize\n      sub\n      dup2\n      add\n      swap1\n      tag_35\n      swap2\n      swap1\n      tag_36\n      jump\t// in\n    tag_35:\n      tag_37\n      jump\t// in\n    tag_34:\n      mload(0x40)\n      tag_38\n      swap2\n      swap1\n      tag_26\n      jump\t// in\n    tag_38:\n      mload(0x40)\n      dup1\n      swap2\n      sub\n      swap1\n      return\n        /* \"Token bound account/ERC6551Account.sol\":2857:3115  function owner() public view virtual returns (address) {... */\n    tag_7:\n      callvalue\n      dup1\n      iszero\n      tag_39\n      jumpi\n      0x00\n      dup1\n      revert\n    tag_39:\n      pop\n      tag_40\n      tag_41\n      jump\t// in\n    tag_40:\n      mload(0x40)\n      tag_42\n      swap2\n      swap1\n      tag_43\n      jump\t// in\n    tag_42:\n      mload(0x40)\n      dup1\n      swap2\n      sub\n      swap1\n      return\n        /* \"Token bound account/ERC6551Account.sol\":1000:1020  uint256 public state */\n    tag_8:\n      callvalue\n      dup1\n      iszero\n      tag_44\n      jumpi\n      0x00\n      dup1\n      revert\n    tag_44:\n      pop\n      tag_45\n      tag_46\n      jump\t// in\n    tag_45:\n      mload(0x40)\n      tag_47\n      swap2\n      swap1\n      tag_48\n      jump\t// in\n    tag_47:\n      mload(0x40)\n      dup1\n      swap2\n      sub\n      swap1\n      return\n        /* \"Token bound account/ERC6551Account.sol\":2553:2849  function token() public view virtual returns (uint256, address, uint256) {... */\n    tag_9:\n      callvalue\n      dup1\n      iszero\n      tag_49\n      jumpi\n      0x00\n      dup1\n      revert\n    tag_49:\n      pop\n      tag_50\n      tag_51\n      jump\t// in\n    tag_50:\n      mload(0x40)\n      tag_52\n      swap4\n      swap3\n      swap2\n      swap1\n      tag_53\n      jump\t// in\n    tag_52:\n      mload(0x40)\n      dup1\n      swap2\n      sub\n      swap1\n      return\n        /* \"Token bound account/ERC6551Account.sol\":2262:2545  function supportsInterface(bytes4 interfaceId) external pure virtual returns (bool) {... */\n    tag_17:\n        /* \"Token bound account/ERC6551Account.sol\":2340:2344  bool */\n      0x00\n        /* \"Token bound account/ERC6551Account.sol\":2379:2404  type(IERC165).interfaceId */\n      0x01ffc9a700000000000000000000000000000000000000000000000000000000\n        /* \"Token bound account/ERC6551Account.sol\":2364:2404  interfaceId == type(IERC165).interfaceId */\n      not(0xffffffffffffffffffffffffffffffffffffffffffffffffffffffff)\n      and\n        /* \"Token bound account/ERC6551Account.sol\":2364:2375  interfaceId */\n      dup3\n        /* \"Token bound account/ERC6551Account.sol\":2364:2404  interfaceId == type(IERC165).interfaceId */\n      not(0xffffffffffffffffffffffffffffffffffffffffffffffffffffffff)\n      and\n      eq\n        /* \"Token bound account/ERC6551Account.sol\":2364:2469  interfaceId == type(IERC165).interfaceId... */\n      dup1\n      tag_55\n      jumpi\n      pop\n        /* \"Token bound account/ERC6551Account.sol\":2436:2469  type(IERC6551Account).interfaceId */\n      0x6faff5f100000000000000000000000000000000000000000000000000000000\n        /* \"Token bound account/ERC6551Account.sol\":2421:2469  interfaceId == type(IERC6551Account).interfaceId */\n      not(0xffffffffffffffffffffffffffffffffffffffffffffffffffffffff)\n      and\n        /* \"Token bound account/ERC6551Account.sol\":2421:2432  interfaceId */\n      dup3\n        /* \"Token bound account/ERC6551Account.sol\":2421:2469  interfaceId == type(IERC6551Account).interfaceId */\n      not(0xffffffffffffffffffffffffffffffffffffffffffffffffffffffff)\n      and\n      eq\n        /* \"Token bound account/ERC6551Account.sol\":2364:2469  interfaceId == type(IERC165).interfaceId... */\n    tag_55:\n        /* \"Token bound account/ERC6551Account.sol\":2364:2537  interfaceId == type(IERC165).interfaceId... */\n      dup1\n      tag_56\n      jumpi\n      pop\n        /* \"Token bound account/ERC6551Account.sol\":2501:2537  type(IERC6551Executable).interfaceId */\n      0x5194544700000000000000000000000000000000000000000000000000000000\n        /* \"Token bound account/ERC6551Account.sol\":2486:2537  interfaceId == type(IERC6551Executable).interfaceId */\n      not(0xffffffffffffffffffffffffffffffffffffffffffffffffffffffff)\n      and\n        /* \"Token bound account/ERC6551Account.sol\":2486:2497  interfaceId */\n      dup3\n        /* \"Token bound account/ERC6551Account.sol\":2486:2537  interfaceId == type(IERC6551Executable).interfaceId */\n      not(0xffffffffffffffffffffffffffffffffffffffffffffffffffffffff)\n      and\n      eq\n        /* \"Token bound account/ERC6551Account.sol\":2364:2537  interfaceId == type(IERC165).interfaceId... */\n    tag_56:\n        /* \"Token bound account/ERC6551Account.sol\":2357:2537  return interfaceId == type(IERC165).interfaceId... */\n      swap1\n      pop\n        /* \"Token bound account/ERC6551Account.sol\":2262:2545  function supportsInterface(bytes4 interfaceId) external pure virtual returns (bool) {... */\n      swap2\n      swap1\n      pop\n      jump\t// out\n        /* \"Token bound account/ERC6551Account.sol\":1881:2254  function isValidSignature(bytes32 hash, bytes memory signature)... */\n    tag_24:\n        /* \"Token bound account/ERC6551Account.sol\":2012:2029  bytes4 magicValue */\n      0x00\n        /* \"Token bound account/ERC6551Account.sol\":2047:2059  bool isValid */\n      dup1\n        /* \"Token bound account/ERC6551Account.sol\":2062:2124  SignatureChecker.isValidSignatureNow(owner(), hash, signature) */\n      tag_58\n        /* \"Token bound account/ERC6551Account.sol\":2099:2106  owner() */\n      tag_59\n        /* \"Token bound account/ERC6551Account.sol\":2099:2104  owner */\n      tag_41\n        /* \"Token bound account/ERC6551Account.sol\":2099:2106  owner() */\n      jump\t// in\n    tag_59:\n        /* \"Token bound account/ERC6551Account.sol\":2108:2112  hash */\n      dup6\n        /* \"Token bound account/ERC6551Account.sol\":2114:2123  signature */\n      dup6\n        /* \"Token bound account/ERC6551Account.sol\":2062:2098  SignatureChecker.isValidSignatureNow */\n      tag_60\n        /* \"Token bound account/ERC6551Account.sol\":2062:2124  SignatureChecker.isValidSignatureNow(owner(), hash, signature) */\n      jump\t// in\n    tag_58:\n        /* \"Token bound account/ERC6551Account.sol\":2047:2124  bool isValid = SignatureChecker.isValidSignatureNow(owner(), hash, signature) */\n      swap1\n      pop\n        /* \"Token bound account/ERC6551Account.sol\":2141:2148  isValid */\n      dup1\n        /* \"Token bound account/ERC6551Account.sol\":2137:2218  if (isValid) {... */\n      iszero\n      tag_61\n      jumpi\n        /* \"Token bound account/ERC6551Account.sol\":2172:2206  IERC1271.isValidSignature.selector */\n      shl(0xe0, 0x1626ba7e)\n        /* \"Token bound account/ERC6551Account.sol\":2165:2206  return IERC1271.isValidSignature.selector */\n      swap2\n      pop\n      pop\n      jump(tag_57)\n        /* \"Token bound account/ERC6551Account.sol\":2137:2218  if (isValid) {... */\n    tag_61:\n        /* \"Token bound account/ERC6551Account.sol\":2244:2245  0 */\n      0x00\n        /* \"Token bound account/ERC6551Account.sol\":2237:2246  bytes4(0) */\n      0xe0\n      shl\n        /* \"Token bound account/ERC6551Account.sol\":2230:2246  return bytes4(0) */\n      swap2\n      pop\n      pop\n        /* \"Token bound account/ERC6551Account.sol\":1881:2254  function isValidSignature(bytes32 hash, bytes memory signature)... */\n    tag_57:\n      swap3\n      swap2\n      pop\n      pop\n      jump\t// out\n        /* \"Token bound account/ERC6551Account.sol\":1066:1624  function execute(address to, uint256 value, bytes calldata data, uint8 operation)... */\n    tag_30:\n        /* \"Token bound account/ERC6551Account.sol\":1218:1237  bytes memory result */\n      0x60\n        /* \"Token bound account/ERC6551Account.sol\":1263:1289  _isValidSigner(msg.sender) */\n      tag_63\n        /* \"Token bound account/ERC6551Account.sol\":1278:1288  msg.sender */\n      caller\n        /* \"Token bound account/ERC6551Account.sol\":1263:1277  _isValidSigner */\n      tag_64\n        /* \"Token bound account/ERC6551Account.sol\":1263:1289  _isValidSigner(msg.sender) */\n      jump\t// in\n    tag_63:\n        /* \"Token bound account/ERC6551Account.sol\":1255:1308  require(_isValidSigner(msg.sender), \"Invalid signer\") */\n      tag_65\n      jumpi\n      mload(0x40)\n      0x08c379a000000000000000000000000000000000000000000000000000000000\n      dup2\n      mstore\n      0x04\n      add\n      tag_66\n      swap1\n      tag_67\n      jump\t// in\n    tag_66:\n      mload(0x40)\n      dup1\n      swap2\n      sub\n      swap1\n      revert\n    tag_65:\n        /* \"Token bound account/ERC6551Account.sol\":1340:1341  0 */\n      0x00\n        /* \"Token bound account/ERC6551Account.sol\":1327:1336  operation */\n      dup3\n        /* \"Token bound account/ERC6551Account.sol\":1327:1341  operation == 0 */\n      0xff\n      and\n      eq\n        /* \"Token bound account/ERC6551Account.sol\":1319:1380  require(operation == 0, \"Only call operations are supported\") */\n      tag_68\n      jumpi\n      mload(0x40)\n      0x08c379a000000000000000000000000000000000000000000000000000000000\n      dup2\n      mstore\n      0x04\n      add\n      tag_69\n      swap1\n      tag_70\n      jump\t// in\n    tag_69:\n      mload(0x40)\n      dup1\n      swap2\n      sub\n      swap1\n      revert\n    tag_68:\n        /* \"Token bound account/ERC6551Account.sol\":1395:1400  state */\n      0x00\n      dup1\n        /* \"Token bound account/ERC6551Account.sol\":1393:1400  ++state */\n      dup2\n      sload\n      tag_71\n      swap1\n      tag_72\n      jump\t// in\n    tag_71:\n      swap2\n      swap1\n      pop\n      dup2\n      swap1\n      sstore\n      pop\n        /* \"Token bound account/ERC6551Account.sol\":1413:1425  bool success */\n      0x00\n        /* \"Token bound account/ERC6551Account.sol\":1456:1458  to */\n      dup7\n        /* \"Token bound account/ERC6551Account.sol\":1456:1463  to.call */\n      0xffffffffffffffffffffffffffffffffffffffff\n      and\n        /* \"Token bound account/ERC6551Account.sol\":1471:1476  value */\n      dup7\n        /* \"Token bound account/ERC6551Account.sol\":1478:1482  data */\n      dup7\n      dup7\n        /* \"Token bound account/ERC6551Account.sol\":1456:1483  to.call{value: value}(data) */\n      mload(0x40)\n      tag_73\n      swap3\n      swap2\n      swap1\n      tag_74\n      jump\t// in\n    tag_73:\n      0x00\n      mload(0x40)\n      dup1\n      dup4\n      sub\n      dup2\n      dup6\n      dup8\n      gas\n      call\n      swap3\n      pop\n      pop\n      pop\n      returndatasize\n      dup1\n      0x00\n      dup2\n      eq\n      tag_77\n      jumpi\n      mload(0x40)\n      swap2\n      pop\n      and(add(returndatasize, 0x3f), not(0x1f))\n      dup3\n      add\n      0x40\n      mstore\n      returndatasize\n      dup3\n      mstore\n      returndatasize\n      0x00\n      0x20\n      dup5\n      add\n      returndatacopy\n      jump(tag_76)\n    tag_77:\n      0x60\n      swap2\n      pop\n    tag_76:\n      pop\n        /* \"Token bound account/ERC6551Account.sol\":1436:1483  (success, result) = to.call{value: value}(data) */\n      dup1\n      swap4\n      pop\n      dup2\n      swap3\n      pop\n      pop\n      pop\n        /* \"Token bound account/ERC6551Account.sol\":1501:1508  success */\n      dup1\n        /* \"Token bound account/ERC6551Account.sol\":1496:1617  if (!success) {... */\n      tag_78\n      jumpi\n        /* \"Token bound account/ERC6551Account.sol\":1583:1589  result */\n      dup2\n        /* \"Token bound account/ERC6551Account.sol\":1577:1590  mload(result) */\n      mload\n        /* \"Token bound account/ERC6551Account.sol\":1572:1574  32 */\n      0x20\n        /* \"Token bound account/ERC6551Account.sol\":1564:1570  result */\n      dup4\n        /* \"Token bound account/ERC6551Account.sol\":1560:1575  add(result, 32) */\n      add\n        /* \"Token bound account/ERC6551Account.sol\":1553:1591  revert(add(result, 32), mload(result)) */\n      revert\n        /* \"Token bound account/ERC6551Account.sol\":1496:1617  if (!success) {... */\n    tag_78:\n        /* \"Token bound account/ERC6551Account.sol\":1244:1624  {... */\n      pop\n        /* \"Token bound account/ERC6551Account.sol\":1066:1624  function execute(address to, uint256 value, bytes calldata data, uint8 operation)... */\n      swap6\n      swap5\n      pop\n      pop\n      pop\n      pop\n      pop\n      jump\t// out\n        /* \"Token bound account/ERC6551Account.sol\":1632:1873  function isValidSigner(address signer, bytes calldata) external view virtual returns (bytes4) {... */\n    tag_37:\n        /* \"Token bound account/ERC6551Account.sol\":1718:1724  bytes4 */\n      0x00\n        /* \"Token bound account/ERC6551Account.sol\":1741:1763  _isValidSigner(signer) */\n      tag_80\n        /* \"Token bound account/ERC6551Account.sol\":1756:1762  signer */\n      dup5\n        /* \"Token bound account/ERC6551Account.sol\":1741:1755  _isValidSigner */\n      tag_64\n        /* \"Token bound account/ERC6551Account.sol\":1741:1763  _isValidSigner(signer) */\n      jump\t// in\n    tag_80:\n        /* \"Token bound account/ERC6551Account.sol\":1737:1837  if (_isValidSigner(signer)) {... */\n      iszero\n      tag_81\n      jumpi\n        /* \"Token bound account/ERC6551Account.sol\":1787:1825  IERC6551Account.isValidSigner.selector */\n      shl(0xe0, 0x523e3260)\n        /* \"Token bound account/ERC6551Account.sol\":1780:1825  return IERC6551Account.isValidSigner.selector */\n      swap1\n      pop\n      jump(tag_79)\n        /* \"Token bound account/ERC6551Account.sol\":1737:1837  if (_isValidSigner(signer)) {... */\n    tag_81:\n        /* \"Token bound account/ERC6551Account.sol\":1863:1864  0 */\n      0x00\n        /* \"Token bound account/ERC6551Account.sol\":1856:1865  bytes4(0) */\n      0xe0\n      shl\n        /* \"Token bound account/ERC6551Account.sol\":1849:1865  return bytes4(0) */\n      swap1\n      pop\n        /* \"Token bound account/ERC6551Account.sol\":1632:1873  function isValidSigner(address signer, bytes calldata) external view virtual returns (bytes4) {... */\n    tag_79:\n      swap4\n      swap3\n      pop\n      pop\n      pop\n      jump\t// out\n        /* \"Token bound account/ERC6551Account.sol\":2857:3115  function owner() public view virtual returns (address) {... */\n    tag_41:\n        /* \"Token bound account/ERC6551Account.sol\":2903:2910  address */\n      0x00\n        /* \"Token bound account/ERC6551Account.sol\":2924:2939  uint256 chainId */\n      dup1\n        /* \"Token bound account/ERC6551Account.sol\":2941:2962  address tokenContract */\n      0x00\n        /* \"Token bound account/ERC6551Account.sol\":2964:2979  uint256 tokenId */\n      dup1\n        /* \"Token bound account/ERC6551Account.sol\":2983:2990  token() */\n      tag_83\n        /* \"Token bound account/ERC6551Account.sol\":2983:2988  token */\n      tag_51\n        /* \"Token bound account/ERC6551Account.sol\":2983:2990  token() */\n      jump\t// in\n    tag_83:\n        /* \"Token bound account/ERC6551Account.sol\":2923:2990  (uint256 chainId, address tokenContract, uint256 tokenId) = token() */\n      swap3\n      pop\n      swap3\n      pop\n      swap3\n      pop\n        /* \"Token bound account/ERC6551Account.sol\":3016:3029  block.chainid */\n      chainid\n        /* \"Token bound account/ERC6551Account.sol\":3005:3012  chainId */\n      dup4\n        /* \"Token bound account/ERC6551Account.sol\":3005:3029  chainId != block.chainid */\n      eq\n        /* \"Token bound account/ERC6551Account.sol\":3001:3048  if (chainId != block.chainid) return address(0) */\n      tag_84\n      jumpi\n        /* \"Token bound account/ERC6551Account.sol\":3046:3047  0 */\n      0x00\n        /* \"Token bound account/ERC6551Account.sol\":3031:3048  return address(0) */\n      swap4\n      pop\n      pop\n      pop\n      pop\n      jump(tag_82)\n        /* \"Token bound account/ERC6551Account.sol\":3001:3048  if (chainId != block.chainid) return address(0) */\n    tag_84:\n        /* \"Token bound account/ERC6551Account.sol\":3076:3089  tokenContract */\n      dup2\n        /* \"Token bound account/ERC6551Account.sol\":3068:3098  IERC721(tokenContract).ownerOf */\n      0xffffffffffffffffffffffffffffffffffffffff\n      and\n      0x6352211e\n        /* \"Token bound account/ERC6551Account.sol\":3099:3106  tokenId */\n      dup3\n        /* \"Token bound account/ERC6551Account.sol\":3068:3107  IERC721(tokenContract).ownerOf(tokenId) */\n      mload(0x40)\n      dup3\n      0xffffffff\n      and\n      0xe0\n      shl\n      dup2\n      mstore\n      0x04\n      add\n      tag_85\n      swap2\n      swap1\n      tag_48\n      jump\t// in\n    tag_85:\n      0x20\n      mload(0x40)\n      dup1\n      dup4\n      sub\n      dup2\n      dup7\n      gas\n      staticcall\n      iszero\n      dup1\n      iszero\n      tag_87\n      jumpi\n      returndatasize\n      0x00\n      dup1\n      returndatacopy\n      revert(0x00, returndatasize)\n    tag_87:\n      pop\n      pop\n      pop\n      pop\n      mload(0x40)\n      returndatasize\n      not(0x1f)\n      0x1f\n      dup3\n      add\n      and\n      dup3\n      add\n      dup1\n      0x40\n      mstore\n      pop\n      dup2\n      add\n      swap1\n      tag_88\n      swap2\n      swap1\n      tag_89\n      jump\t// in\n    tag_88:\n        /* \"Token bound account/ERC6551Account.sol\":3061:3107  return IERC721(tokenContract).ownerOf(tokenId) */\n      swap4\n      pop\n      pop\n      pop\n      pop\n        /* \"Token bound account/ERC6551Account.sol\":2857:3115  function owner() public view virtual returns (address) {... */\n    tag_82:\n      swap1\n      jump\t// out\n        /* \"Token bound account/ERC6551Account.sol\":1000:1020  uint256 public state */\n    tag_46:\n      sload(0x00)\n      dup2\n      jump\t// out\n        /* \"Token bound account/ERC6551Account.sol\":2553:2849  function token() public view virtual returns (uint256, address, uint256) {... */\n    tag_51:\n        /* \"Token bound account/ERC6551Account.sol\":2599:2606  uint256 */\n      0x00\n        /* \"Token bound account/ERC6551Account.sol\":2608:2615  address */\n      dup1\n        /* \"Token bound account/ERC6551Account.sol\":2617:2624  uint256 */\n      0x00\n        /* \"Token bound account/ERC6551Account.sol\":2637:2656  bytes memory footer */\n      dup1\n        /* \"Token bound account/ERC6551Account.sol\":2669:2673  0x60 */\n      0x60\n        /* \"Token bound account/ERC6551Account.sol\":2659:2674  new bytes(0x60) */\n      0xffffffffffffffff\n      dup2\n      gt\n      iszero\n      tag_91\n      jumpi\n      tag_92\n      tag_93\n      jump\t// in\n    tag_92:\n    tag_91:\n      mload(0x40)\n      swap1\n      dup1\n      dup3\n      mstore\n      dup1\n      0x1f\n      add\n      not(0x1f)\n      and\n      0x20\n      add\n      dup3\n      add\n      0x40\n      mstore\n      dup1\n      iszero\n      tag_94\n      jumpi\n      dup2\n      0x20\n      add\n      0x01\n      dup3\n      mul\n      dup1\n      calldatasize\n      dup4\n      calldatacopy\n      dup1\n      dup3\n      add\n      swap2\n      pop\n      pop\n      swap1\n      pop\n    tag_94:\n      pop\n        /* \"Token bound account/ERC6551Account.sol\":2637:2674  bytes memory footer = new bytes(0x60) */\n      swap1\n      pop\n        /* \"Token bound account/ERC6551Account.sol\":2759:2763  0x60 */\n      0x60\n        /* \"Token bound account/ERC6551Account.sol\":2753:2757  0x4d */\n      0x4d\n        /* \"Token bound account/ERC6551Account.sol\":2746:2750  0x20 */\n      0x20\n        /* \"Token bound account/ERC6551Account.sol\":2738:2744  footer */\n      dup4\n        /* \"Token bound account/ERC6551Account.sol\":2734:2751  add(footer, 0x20) */\n      add\n        /* \"Token bound account/ERC6551Account.sol\":2723:2732  address() */\n      address\n        /* \"Token bound account/ERC6551Account.sol\":2711:2764  extcodecopy(address(), add(footer, 0x20), 0x4d, 0x60) */\n      extcodecopy\n        /* \"Token bound account/ERC6551Account.sol\":2805:2811  footer */\n      dup1\n        /* \"Token bound account/ERC6551Account.sol\":2794:2841  abi.decode(footer, (uint256, address, uint256)) */\n      dup1\n      0x20\n      add\n      swap1\n      mload\n      dup2\n      add\n      swap1\n      tag_95\n      swap2\n      swap1\n      tag_96\n      jump\t// in\n    tag_95:\n        /* \"Token bound account/ERC6551Account.sol\":2787:2841  return abi.decode(footer, (uint256, address, uint256)) */\n      swap4\n      pop\n      swap4\n      pop\n      swap4\n      pop\n      pop\n        /* \"Token bound account/ERC6551Account.sol\":2553:2849  function token() public view virtual returns (uint256, address, uint256) {... */\n      swap1\n      swap2\n      swap3\n      jump\t// out\n        /* \"@openzeppelin/contracts/utils/cryptography/SignatureChecker.sol\":1039:1407  function isValidSignatureNow(address signer, bytes32 hash, bytes memory signature) internal view returns (bool) {... */\n    tag_60:\n        /* \"@openzeppelin/contracts/utils/cryptography/SignatureChecker.sol\":1145:1149  bool */\n      0x00\n        /* \"@openzeppelin/contracts/utils/cryptography/SignatureChecker.sol\":1162:1179  address recovered */\n      dup1\n        /* \"@openzeppelin/contracts/utils/cryptography/SignatureChecker.sol\":1181:1205  ECDSA.RecoverError error */\n      0x00\n        /* \"@openzeppelin/contracts/utils/cryptography/SignatureChecker.sol\":1211:1244  ECDSA.tryRecover(hash, signature) */\n      tag_98\n        /* \"@openzeppelin/contracts/utils/cryptography/SignatureChecker.sol\":1228:1232  hash */\n      dup6\n        /* \"@openzeppelin/contracts/utils/cryptography/SignatureChecker.sol\":1234:1243  signature */\n      dup6\n        /* \"@openzeppelin/contracts/utils/cryptography/SignatureChecker.sol\":1211:1227  ECDSA.tryRecover */\n      tag_99\n        /* \"@openzeppelin/contracts/utils/cryptography/SignatureChecker.sol\":1211:1244  ECDSA.tryRecover(hash, signature) */\n      jump\t// in\n    tag_98:\n        /* \"@openzeppelin/contracts/utils/cryptography/SignatureChecker.sol\":1161:1244  (address recovered, ECDSA.RecoverError error, ) = ECDSA.tryRecover(hash, signature) */\n      pop\n      swap2\n      pop\n      swap2\n      pop\n        /* \"@openzeppelin/contracts/utils/cryptography/SignatureChecker.sol\":1283:1309  ECDSA.RecoverError.NoError */\n      0x00\n        /* \"@openzeppelin/contracts/utils/cryptography/SignatureChecker.sol\":1274:1309  error == ECDSA.RecoverError.NoError */\n      0x03\n      dup2\n      gt\n      iszero\n      tag_100\n      jumpi\n      tag_101\n      tag_102\n      jump\t// in\n    tag_101:\n    tag_100:\n        /* \"@openzeppelin/contracts/utils/cryptography/SignatureChecker.sol\":1274:1279  error */\n      dup2\n        /* \"@openzeppelin/contracts/utils/cryptography/SignatureChecker.sol\":1274:1309  error == ECDSA.RecoverError.NoError */\n      0x03\n      dup2\n      gt\n      iszero\n      tag_103\n      jumpi\n      tag_104\n      tag_102\n      jump\t// in\n    tag_104:\n    tag_103:\n      eq\n        /* \"@openzeppelin/contracts/utils/cryptography/SignatureChecker.sol\":1274:1332  error == ECDSA.RecoverError.NoError && recovered == signer */\n      dup1\n      iszero\n      tag_105\n      jumpi\n      pop\n        /* \"@openzeppelin/contracts/utils/cryptography/SignatureChecker.sol\":1326:1332  signer */\n      dup6\n        /* \"@openzeppelin/contracts/utils/cryptography/SignatureChecker.sol\":1313:1332  recovered == signer */\n      0xffffffffffffffffffffffffffffffffffffffff\n      and\n        /* \"@openzeppelin/contracts/utils/cryptography/SignatureChecker.sol\":1313:1322  recovered */\n      dup3\n        /* \"@openzeppelin/contracts/utils/cryptography/SignatureChecker.sol\":1313:1332  recovered == signer */\n      0xffffffffffffffffffffffffffffffffffffffff\n      and\n      eq\n        /* \"@openzeppelin/contracts/utils/cryptography/SignatureChecker.sol\":1274:1332  error == ECDSA.RecoverError.NoError && recovered == signer */\n    tag_105:\n        /* \"@openzeppelin/contracts/utils/cryptography/SignatureChecker.sol\":1273:1400  (error == ECDSA.RecoverError.NoError && recovered == signer) ||... */\n      dup1\n      tag_106\n      jumpi\n      pop\n        /* \"@openzeppelin/contracts/utils/cryptography/SignatureChecker.sol\":1349:1400  isValidERC1271SignatureNow(signer, hash, signature) */\n      tag_107\n        /* \"@openzeppelin/contracts/utils/cryptography/SignatureChecker.sol\":1376:1382  signer */\n      dup7\n        /* \"@openzeppelin/contracts/utils/cryptography/SignatureChecker.sol\":1384:1388  hash */\n      dup7\n        /* \"@openzeppelin/contracts/utils/cryptography/SignatureChecker.sol\":1390:1399  signature */\n      dup7\n        /* \"@openzeppelin/contracts/utils/cryptography/SignatureChecker.sol\":1349:1375  isValidERC1271SignatureNow */\n      tag_108\n        /* \"@openzeppelin/contracts/utils/cryptography/SignatureChecker.sol\":1349:1400  isValidERC1271SignatureNow(signer, hash, signature) */\n      jump\t// in\n    tag_107:\n        /* \"@openzeppelin/contracts/utils/cryptography/SignatureChecker.sol\":1273:1400  (error == ECDSA.RecoverError.NoError && recovered == signer) ||... */\n    tag_106:\n        /* \"@openzeppelin/contracts/utils/cryptography/SignatureChecker.sol\":1254:1400  return... */\n      swap3\n      pop\n      pop\n      pop\n        /* \"@openzeppelin/contracts/utils/cryptography/SignatureChecker.sol\":1039:1407  function isValidSignatureNow(address signer, bytes32 hash, bytes memory signature) internal view returns (bool) {... */\n      swap4\n      swap3\n      pop\n      pop\n      pop\n      jump\t// out\n        /* \"Token bound account/ERC6551Account.sol\":3123:3243  function _isValidSigner(address signer) internal view virtual returns (bool) {... */\n    tag_64:\n        /* \"Token bound account/ERC6551Account.sol\":3194:3198  bool */\n      0x00\n        /* \"Token bound account/ERC6551Account.sol\":3228:3235  owner() */\n      tag_110\n        /* \"Token bound account/ERC6551Account.sol\":3228:3233  owner */\n      tag_41\n        /* \"Token bound account/ERC6551Account.sol\":3228:3235  owner() */\n      jump\t// in\n    tag_110:\n        /* \"Token bound account/ERC6551Account.sol\":3218:3235  signer == owner() */\n      0xffffffffffffffffffffffffffffffffffffffff\n      and\n        /* \"Token bound account/ERC6551Account.sol\":3218:3224  signer */\n      dup3\n        /* \"Token bound account/ERC6551Account.sol\":3218:3235  signer == owner() */\n      0xffffffffffffffffffffffffffffffffffffffff\n      and\n      eq\n        /* \"Token bound account/ERC6551Account.sol\":3211:3235  return signer == owner() */\n      swap1\n      pop\n        /* \"Token bound account/ERC6551Account.sol\":3123:3243  function _isValidSigner(address signer) internal view virtual returns (bool) {... */\n      swap2\n      swap1\n      pop\n      jump\t// out\n        /* \"@openzeppelin/contracts/utils/cryptography/ECDSA.sol\":2129:2895  function tryRecover(bytes32 hash, bytes memory signature) internal pure returns (address, RecoverError, bytes32) {... */\n    tag_99:\n        /* \"@openzeppelin/contracts/utils/cryptography/ECDSA.sol\":2210:2217  address */\n      0x00\n        /* \"@openzeppelin/contracts/utils/cryptography/ECDSA.sol\":2219:2231  RecoverError */\n      dup1\n        /* \"@openzeppelin/contracts/utils/cryptography/ECDSA.sol\":2233:2240  bytes32 */\n      0x00\n        /* \"@openzeppelin/contracts/utils/cryptography/ECDSA.sol\":2276:2278  65 */\n      0x41\n        /* \"@openzeppelin/contracts/utils/cryptography/ECDSA.sol\":2256:2265  signature */\n      dup5\n        /* \"@openzeppelin/contracts/utils/cryptography/ECDSA.sol\":2256:2272  signature.length */\n      mload\n        /* \"@openzeppelin/contracts/utils/cryptography/ECDSA.sol\":2256:2278  signature.length == 65 */\n      sub\n        /* \"@openzeppelin/contracts/utils/cryptography/ECDSA.sol\":2252:2889  if (signature.length == 65) {... */\n      tag_112\n      jumpi\n        /* \"@openzeppelin/contracts/utils/cryptography/ECDSA.sol\":2294:2303  bytes32 r */\n      0x00\n        /* \"@openzeppelin/contracts/utils/cryptography/ECDSA.sol\":2317:2326  bytes32 s */\n      dup1\n        /* \"@openzeppelin/contracts/utils/cryptography/ECDSA.sol\":2340:2347  uint8 v */\n      0x00\n        /* \"@openzeppelin/contracts/utils/cryptography/ECDSA.sol\":2592:2596  0x20 */\n      0x20\n        /* \"@openzeppelin/contracts/utils/cryptography/ECDSA.sol\":2581:2590  signature */\n      dup8\n        /* \"@openzeppelin/contracts/utils/cryptography/ECDSA.sol\":2577:2597  add(signature, 0x20) */\n      add\n        /* \"@openzeppelin/contracts/utils/cryptography/ECDSA.sol\":2571:2598  mload(add(signature, 0x20)) */\n      mload\n        /* \"@openzeppelin/contracts/utils/cryptography/ECDSA.sol\":2566:2598  r := mload(add(signature, 0x20)) */\n      swap3\n      pop\n        /* \"@openzeppelin/contracts/utils/cryptography/ECDSA.sol\":2641:2645  0x40 */\n      0x40\n        /* \"@openzeppelin/contracts/utils/cryptography/ECDSA.sol\":2630:2639  signature */\n      dup8\n        /* \"@openzeppelin/contracts/utils/cryptography/ECDSA.sol\":2626:2646  add(signature, 0x40) */\n      add\n        /* \"@openzeppelin/contracts/utils/cryptography/ECDSA.sol\":2620:2647  mload(add(signature, 0x40)) */\n      mload\n        /* \"@openzeppelin/contracts/utils/cryptography/ECDSA.sol\":2615:2647  s := mload(add(signature, 0x40)) */\n      swap2\n      pop\n        /* \"@openzeppelin/contracts/utils/cryptography/ECDSA.sol\":2698:2702  0x60 */\n      0x60\n        /* \"@openzeppelin/contracts/utils/cryptography/ECDSA.sol\":2687:2696  signature */\n      dup8\n        /* \"@openzeppelin/contracts/utils/cryptography/ECDSA.sol\":2683:2703  add(signature, 0x60) */\n      add\n        /* \"@openzeppelin/contracts/utils/cryptography/ECDSA.sol\":2677:2704  mload(add(signature, 0x60)) */\n      mload\n        /* \"@openzeppelin/contracts/utils/cryptography/ECDSA.sol\":2674:2675  0 */\n      0x00\n        /* \"@openzeppelin/contracts/utils/cryptography/ECDSA.sol\":2669:2705  byte(0, mload(add(signature, 0x60))) */\n      byte\n        /* \"@openzeppelin/contracts/utils/cryptography/ECDSA.sol\":2664:2705  v := byte(0, mload(add(signature, 0x60))) */\n      swap1\n      pop\n        /* \"@openzeppelin/contracts/utils/cryptography/ECDSA.sol\":2739:2764  tryRecover(hash, v, r, s) */\n      tag_113\n        /* \"@openzeppelin/contracts/utils/cryptography/ECDSA.sol\":2750:2754  hash */\n      dup9\n        /* \"@openzeppelin/contracts/utils/cryptography/ECDSA.sol\":2756:2757  v */\n      dup3\n        /* \"@openzeppelin/contracts/utils/cryptography/ECDSA.sol\":2759:2760  r */\n      dup6\n        /* \"@openzeppelin/contracts/utils/cryptography/ECDSA.sol\":2762:2763  s */\n      dup6\n        /* \"@openzeppelin/contracts/utils/cryptography/ECDSA.sol\":2739:2749  tryRecover */\n      tag_114\n        /* \"@openzeppelin/contracts/utils/cryptography/ECDSA.sol\":2739:2764  tryRecover(hash, v, r, s) */\n      jump\t// in\n    tag_113:\n        /* \"@openzeppelin/contracts/utils/cryptography/ECDSA.sol\":2732:2764  return tryRecover(hash, v, r, s) */\n      swap6\n      pop\n      swap6\n      pop\n      swap6\n      pop\n      pop\n      pop\n      pop\n      jump(tag_111)\n        /* \"@openzeppelin/contracts/utils/cryptography/ECDSA.sol\":2252:2889  if (signature.length == 65) {... */\n    tag_112:\n        /* \"@openzeppelin/contracts/utils/cryptography/ECDSA.sol\":2811:2812  0 */\n      0x00\n        /* \"@openzeppelin/contracts/utils/cryptography/ECDSA.sol\":2815:2850  RecoverError.InvalidSignatureLength */\n      0x02\n        /* \"@openzeppelin/contracts/utils/cryptography/ECDSA.sol\":2860:2869  signature */\n      dup6\n        /* \"@openzeppelin/contracts/utils/cryptography/ECDSA.sol\":2860:2876  signature.length */\n      mload\n        /* \"@openzeppelin/contracts/utils/cryptography/ECDSA.sol\":2852:2877  bytes32(signature.length) */\n      0x00\n      shl\n        /* \"@openzeppelin/contracts/utils/cryptography/ECDSA.sol\":2795:2878  return (address(0), RecoverError.InvalidSignatureLength, bytes32(signature.length)) */\n      swap3\n      pop\n      swap3\n      pop\n      swap3\n      pop\n        /* \"@openzeppelin/contracts/utils/cryptography/ECDSA.sol\":2129:2895  function tryRecover(bytes32 hash, bytes memory signature) internal pure returns (address, RecoverError, bytes32) {... */\n    tag_111:\n      swap3\n      pop\n      swap3\n      pop\n      swap3\n      jump\t// out\n        /* \"@openzeppelin/contracts/utils/cryptography/SignatureChecker.sol\":1813:2271  function isValidERC1271SignatureNow(... */\n    tag_108:\n        /* \"@openzeppelin/contracts/utils/cryptography/SignatureChecker.sol\":1956:1960  bool */\n      0x00\n        /* \"@openzeppelin/contracts/utils/cryptography/SignatureChecker.sol\":1973:1985  bool success */\n      dup1\n        /* \"@openzeppelin/contracts/utils/cryptography/SignatureChecker.sol\":1987:2006  bytes memory result */\n      0x00\n        /* \"@openzeppelin/contracts/utils/cryptography/SignatureChecker.sol\":2010:2016  signer */\n      dup6\n        /* \"@openzeppelin/contracts/utils/cryptography/SignatureChecker.sol\":2010:2027  signer.staticcall */\n      0xffffffffffffffffffffffffffffffffffffffff\n      and\n        /* \"@openzeppelin/contracts/utils/cryptography/SignatureChecker.sol\":2084:2088  hash */\n      dup6\n        /* \"@openzeppelin/contracts/utils/cryptography/SignatureChecker.sol\":2090:2099  signature */\n      dup6\n        /* \"@openzeppelin/contracts/utils/cryptography/SignatureChecker.sol\":2041:2101  abi.encodeCall(IERC1271.isValidSignature, (hash, signature)) */\n      add(0x24, mload(0x40))\n      tag_117\n      swap3\n      swap2\n      swap1\n      tag_118\n      jump\t// in\n    tag_117:\n      mload(0x40)\n      0x20\n      dup2\n      dup4\n      sub\n      sub\n      dup2\n      mstore\n      swap1\n      0x40\n      mstore\n      shl(0xe0, 0x1626ba7e)\n      0x20\n      dup3\n      add\n      dup1\n      mload\n      0xffffffffffffffffffffffffffffffffffffffffffffffffffffffff\n      dup4\n      dup2\n      dup4\n      and\n      or\n      dup4\n      mstore\n      pop\n      pop\n      pop\n      pop\n        /* \"@openzeppelin/contracts/utils/cryptography/SignatureChecker.sol\":2010:2111  signer.staticcall(... */\n      mload(0x40)\n      tag_119\n      swap2\n      swap1\n      tag_120\n      jump\t// in\n    tag_119:\n      0x00\n      mload(0x40)\n      dup1\n      dup4\n      sub\n      dup2\n      dup6\n      gas\n      staticcall\n      swap2\n      pop\n      pop\n      returndatasize\n      dup1\n      0x00\n      dup2\n      eq\n      tag_123\n      jumpi\n      mload(0x40)\n      swap2\n      pop\n      and(add(returndatasize, 0x3f), not(0x1f))\n      dup3\n      add\n      0x40\n      mstore\n      returndatasize\n      dup3\n      mstore\n      returndatasize\n      0x00\n      0x20\n      dup5\n      add\n      returndatacopy\n      jump(tag_122)\n    tag_123:\n      0x60\n      swap2\n      pop\n    tag_122:\n      pop\n        /* \"@openzeppelin/contracts/utils/cryptography/SignatureChecker.sol\":1972:2111  (bool success, bytes memory result) = signer.staticcall(... */\n      swap2\n      pop\n      swap2\n      pop\n        /* \"@openzeppelin/contracts/utils/cryptography/SignatureChecker.sol\":2129:2136  success */\n      dup2\n        /* \"@openzeppelin/contracts/utils/cryptography/SignatureChecker.sol\":2129:2171  success &&... */\n      dup1\n      iszero\n      tag_124\n      jumpi\n      pop\n        /* \"@openzeppelin/contracts/utils/cryptography/SignatureChecker.sol\":2169:2171  32 */\n      0x20\n        /* \"@openzeppelin/contracts/utils/cryptography/SignatureChecker.sol\":2152:2158  result */\n      dup2\n        /* \"@openzeppelin/contracts/utils/cryptography/SignatureChecker.sol\":2152:2165  result.length */\n      mload\n        /* \"@openzeppelin/contracts/utils/cryptography/SignatureChecker.sol\":2152:2171  result.length >= 32 */\n      lt\n      iszero\n        /* \"@openzeppelin/contracts/utils/cryptography/SignatureChecker.sol\":2129:2171  success &&... */\n    tag_124:\n        /* \"@openzeppelin/contracts/utils/cryptography/SignatureChecker.sol\":2129:2263  success &&... */\n      dup1\n      iszero\n      tag_125\n      jumpi\n      pop\n        /* \"@openzeppelin/contracts/utils/cryptography/SignatureChecker.sol\":2228:2262  IERC1271.isValidSignature.selector */\n      shl(0xe0, 0x1626ba7e)\n        /* \"@openzeppelin/contracts/utils/cryptography/SignatureChecker.sol\":2220:2263  bytes32(IERC1271.isValidSignature.selector) */\n      not(0xffffffffffffffffffffffffffffffffffffffffffffffffffffffff)\n      and\n        /* \"@openzeppelin/contracts/utils/cryptography/SignatureChecker.sol\":2198:2204  result */\n      dup2\n        /* \"@openzeppelin/contracts/utils/cryptography/SignatureChecker.sol\":2187:2216  abi.decode(result, (bytes32)) */\n      dup1\n      0x20\n      add\n      swap1\n      mload\n      dup2\n      add\n      swap1\n      tag_126\n      swap2\n      swap1\n      tag_127\n      jump\t// in\n    tag_126:\n        /* \"@openzeppelin/contracts/utils/cryptography/SignatureChecker.sol\":2187:2263  abi.decode(result, (bytes32)) == bytes32(IERC1271.isValidSignature.selector) */\n      eq\n        /* \"@openzeppelin/contracts/utils/cryptography/SignatureChecker.sol\":2129:2263  success &&... */\n    tag_125:\n        /* \"@openzeppelin/contracts/utils/cryptography/SignatureChecker.sol\":2121:2264  return (success &&... */\n      swap3\n      pop\n      pop\n      pop\n        /* \"@openzeppelin/contracts/utils/cryptography/SignatureChecker.sol\":1813:2271  function isValidERC1271SignatureNow(... */\n      swap4\n      swap3\n      pop\n      pop\n      pop\n      jump\t// out\n        /* \"@openzeppelin/contracts/utils/cryptography/ECDSA.sol\":5140:6670  function tryRecover(... */\n    tag_114:\n        /* \"@openzeppelin/contracts/utils/cryptography/ECDSA.sol\":5266:5273  address */\n      0x00\n        /* \"@openzeppelin/contracts/utils/cryptography/ECDSA.sol\":5275:5287  RecoverError */\n      dup1\n        /* \"@openzeppelin/contracts/utils/cryptography/ECDSA.sol\":5289:5296  bytes32 */\n      0x00\n        /* \"@openzeppelin/contracts/utils/cryptography/ECDSA.sol\":6199:6265  0x7FFFFFFFFFFFFFFFFFFFFFFFFFFFFFFF5D576E7357A4501DDFE92F46681B20A0 */\n      0x7fffffffffffffffffffffffffffffff5d576e7357a4501ddfe92f46681b20a0\n        /* \"@openzeppelin/contracts/utils/cryptography/ECDSA.sol\":6194:6195  s */\n      dup5\n        /* \"@openzeppelin/contracts/utils/cryptography/ECDSA.sol\":6186:6196  uint256(s) */\n      0x00\n      shr\n        /* \"@openzeppelin/contracts/utils/cryptography/ECDSA.sol\":6186:6265  uint256(s) > 0x7FFFFFFFFFFFFFFFFFFFFFFFFFFFFFFF5D576E7357A4501DDFE92F46681B20A0 */\n      gt\n        /* \"@openzeppelin/contracts/utils/cryptography/ECDSA.sol\":6182:6346  if (uint256(s) > 0x7FFFFFFFFFFFFFFFFFFFFFFFFFFFFFFF5D576E7357A4501DDFE92F46681B20A0) {... */\n      iszero\n      tag_129\n      jumpi\n        /* \"@openzeppelin/contracts/utils/cryptography/ECDSA.sol\":6297:6298  0 */\n      0x00\n        /* \"@openzeppelin/contracts/utils/cryptography/ECDSA.sol\":6301:6331  RecoverError.InvalidSignatureS */\n      0x03\n        /* \"@openzeppelin/contracts/utils/cryptography/ECDSA.sol\":6333:6334  s */\n      dup6\n        /* \"@openzeppelin/contracts/utils/cryptography/ECDSA.sol\":6281:6335  return (address(0), RecoverError.InvalidSignatureS, s) */\n      swap3\n      pop\n      swap3\n      pop\n      swap3\n      pop\n      jump(tag_128)\n        /* \"@openzeppelin/contracts/utils/cryptography/ECDSA.sol\":6182:6346  if (uint256(s) > 0x7FFFFFFFFFFFFFFFFFFFFFFFFFFFFFFF5D576E7357A4501DDFE92F46681B20A0) {... */\n    tag_129:\n        /* \"@openzeppelin/contracts/utils/cryptography/ECDSA.sol\":6440:6454  address signer */\n      0x00\n        /* \"@openzeppelin/contracts/utils/cryptography/ECDSA.sol\":6457:6481  ecrecover(hash, v, r, s) */\n      0x01\n        /* \"@openzeppelin/contracts/utils/cryptography/ECDSA.sol\":6467:6471  hash */\n      dup9\n        /* \"@openzeppelin/contracts/utils/cryptography/ECDSA.sol\":6473:6474  v */\n      dup9\n        /* \"@openzeppelin/contracts/utils/cryptography/ECDSA.sol\":6476:6477  r */\n      dup9\n        /* \"@openzeppelin/contracts/utils/cryptography/ECDSA.sol\":6479:6480  s */\n      dup9\n        /* \"@openzeppelin/contracts/utils/cryptography/ECDSA.sol\":6457:6481  ecrecover(hash, v, r, s) */\n      mload(0x40)\n      0x00\n      dup2\n      mstore\n      0x20\n      add\n      0x40\n      mstore\n      mload(0x40)\n      tag_130\n      swap5\n      swap4\n      swap3\n      swap2\n      swap1\n      tag_131\n      jump\t// in\n    tag_130:\n      0x20\n      mload(0x40)\n      0x20\n      dup2\n      sub\n      swap1\n      dup1\n      dup5\n      sub\n      swap1\n      dup6\n      gas\n      staticcall\n      iszero\n      dup1\n      iszero\n      tag_133\n      jumpi\n      returndatasize\n      0x00\n      dup1\n      returndatacopy\n      revert(0x00, returndatasize)\n    tag_133:\n      pop\n      pop\n      pop\n      mload(sub(mload(0x40), 0x20))\n        /* \"@openzeppelin/contracts/utils/cryptography/ECDSA.sol\":6440:6481  address signer = ecrecover(hash, v, r, s) */\n      swap1\n      pop\n        /* \"@openzeppelin/contracts/utils/cryptography/ECDSA.sol\":6513:6514  0 */\n      0x00\n        /* \"@openzeppelin/contracts/utils/cryptography/ECDSA.sol\":6495:6515  signer == address(0) */\n      0xffffffffffffffffffffffffffffffffffffffff\n      and\n        /* \"@openzeppelin/contracts/utils/cryptography/ECDSA.sol\":6495:6501  signer */\n      dup2\n        /* \"@openzeppelin/contracts/utils/cryptography/ECDSA.sol\":6495:6515  signer == address(0) */\n      0xffffffffffffffffffffffffffffffffffffffff\n      and\n      sub\n        /* \"@openzeppelin/contracts/utils/cryptography/ECDSA.sol\":6491:6604  if (signer == address(0)) {... */\n      tag_134\n      jumpi\n        /* \"@openzeppelin/contracts/utils/cryptography/ECDSA.sol\":6547:6548  0 */\n      0x00\n        /* \"@openzeppelin/contracts/utils/cryptography/ECDSA.sol\":6551:6580  RecoverError.InvalidSignature */\n      0x01\n        /* \"@openzeppelin/contracts/utils/cryptography/ECDSA.sol\":6590:6591  0 */\n      0x00\n        /* \"@openzeppelin/contracts/utils/cryptography/ECDSA.sol\":6582:6592  bytes32(0) */\n      dup1\n      shl\n        /* \"@openzeppelin/contracts/utils/cryptography/ECDSA.sol\":6531:6593  return (address(0), RecoverError.InvalidSignature, bytes32(0)) */\n      swap4\n      pop\n      swap4\n      pop\n      swap4\n      pop\n      pop\n      jump(tag_128)\n        /* \"@openzeppelin/contracts/utils/cryptography/ECDSA.sol\":6491:6604  if (signer == address(0)) {... */\n    tag_134:\n        /* \"@openzeppelin/contracts/utils/cryptography/ECDSA.sol\":6622:6628  signer */\n      dup1\n        /* \"@openzeppelin/contracts/utils/cryptography/ECDSA.sol\":6630:6650  RecoverError.NoError */\n      0x00\n        /* \"@openzeppelin/contracts/utils/cryptography/ECDSA.sol\":6660:6661  0 */\n      dup1\n        /* \"@openzeppelin/contracts/utils/cryptography/ECDSA.sol\":6652:6662  bytes32(0) */\n      0x00\n      shl\n        /* \"@openzeppelin/contracts/utils/cryptography/ECDSA.sol\":6614:6663  return (signer, RecoverError.NoError, bytes32(0)) */\n      swap4\n      pop\n      swap4\n      pop\n      swap4\n      pop\n      pop\n        /* \"@openzeppelin/contracts/utils/cryptography/ECDSA.sol\":5140:6670  function tryRecover(... */\n    tag_128:\n      swap5\n      pop\n      swap5\n      pop\n      swap5\n      swap2\n      pop\n      pop\n      jump\t// out\n        /* \"#utility.yul\":7:82   */\n    tag_135:\n        /* \"#utility.yul\":40:46   */\n      0x00\n        /* \"#utility.yul\":73:75   */\n      0x40\n        /* \"#utility.yul\":67:76   */\n      mload\n        /* \"#utility.yul\":57:76   */\n      swap1\n      pop\n        /* \"#utility.yul\":7:82   */\n      swap1\n      jump\t// out\n        /* \"#utility.yul\":88:205   */\n    tag_136:\n        /* \"#utility.yul\":197:198   */\n      0x00\n        /* \"#utility.yul\":194:195   */\n      dup1\n        /* \"#utility.yul\":187:199   */\n      revert\n        /* \"#utility.yul\":211:328   */\n    tag_137:\n        /* \"#utility.yul\":320:321   */\n      0x00\n        /* \"#utility.yul\":317:318   */\n      dup1\n        /* \"#utility.yul\":310:322   */\n      revert\n        /* \"#utility.yul\":334:483   */\n    tag_138:\n        /* \"#utility.yul\":370:377   */\n      0x00\n        /* \"#utility.yul\":410:476   */\n      0xffffffff00000000000000000000000000000000000000000000000000000000\n        /* \"#utility.yul\":403:408   */\n      dup3\n        /* \"#utility.yul\":399:477   */\n      and\n        /* \"#utility.yul\":388:477   */\n      swap1\n      pop\n        /* \"#utility.yul\":334:483   */\n      swap2\n      swap1\n      pop\n      jump\t// out\n        /* \"#utility.yul\":489:609   */\n    tag_139:\n        /* \"#utility.yul\":561:584   */\n      tag_198\n        /* \"#utility.yul\":578:583   */\n      dup2\n        /* \"#utility.yul\":561:584   */\n      tag_138\n      jump\t// in\n    tag_198:\n        /* \"#utility.yul\":554:559   */\n      dup2\n        /* \"#utility.yul\":551:585   */\n      eq\n        /* \"#utility.yul\":541:603   */\n      tag_199\n      jumpi\n        /* \"#utility.yul\":599:600   */\n      0x00\n        /* \"#utility.yul\":596:597   */\n      dup1\n        /* \"#utility.yul\":589:601   */\n      revert\n        /* \"#utility.yul\":541:603   */\n    tag_199:\n        /* \"#utility.yul\":489:609   */\n      pop\n      jump\t// out\n        /* \"#utility.yul\":615:752   */\n    tag_140:\n        /* \"#utility.yul\":660:665   */\n      0x00\n        /* \"#utility.yul\":698:704   */\n      dup2\n        /* \"#utility.yul\":685:705   */\n      calldataload\n        /* \"#utility.yul\":676:705   */\n      swap1\n      pop\n        /* \"#utility.yul\":714:746   */\n      tag_201\n        /* \"#utility.yul\":740:745   */\n      dup2\n        /* \"#utility.yul\":714:746   */\n      tag_139\n      jump\t// in\n    tag_201:\n        /* \"#utility.yul\":615:752   */\n      swap3\n      swap2\n      pop\n      pop\n      jump\t// out\n        /* \"#utility.yul\":758:1085   */\n    tag_16:\n        /* \"#utility.yul\":816:822   */\n      0x00\n        /* \"#utility.yul\":865:867   */\n      0x20\n        /* \"#utility.yul\":853:862   */\n      dup3\n        /* \"#utility.yul\":844:851   */\n      dup5\n        /* \"#utility.yul\":840:863   */\n      sub\n        /* \"#utility.yul\":836:868   */\n      slt\n        /* \"#utility.yul\":833:952   */\n      iszero\n      tag_203\n      jumpi\n        /* \"#utility.yul\":871:950   */\n      tag_204\n      tag_136\n      jump\t// in\n    tag_204:\n        /* \"#utility.yul\":833:952   */\n    tag_203:\n        /* \"#utility.yul\":991:992   */\n      0x00\n        /* \"#utility.yul\":1016:1068   */\n      tag_205\n        /* \"#utility.yul\":1060:1067   */\n      dup5\n        /* \"#utility.yul\":1051:1057   */\n      dup3\n        /* \"#utility.yul\":1040:1049   */\n      dup6\n        /* \"#utility.yul\":1036:1058   */\n      add\n        /* \"#utility.yul\":1016:1068   */\n      tag_140\n      jump\t// in\n    tag_205:\n        /* \"#utility.yul\":1006:1068   */\n      swap2\n      pop\n        /* \"#utility.yul\":962:1078   */\n      pop\n        /* \"#utility.yul\":758:1085   */\n      swap3\n      swap2\n      pop\n      pop\n      jump\t// out\n        /* \"#utility.yul\":1091:1181   */\n    tag_141:\n        /* \"#utility.yul\":1125:1132   */\n      0x00\n        /* \"#utility.yul\":1168:1173   */\n      dup2\n        /* \"#utility.yul\":1161:1174   */\n      iszero\n        /* \"#utility.yul\":1154:1175   */\n      iszero\n        /* \"#utility.yul\":1143:1175   */\n      swap1\n      pop\n        /* \"#utility.yul\":1091:1181   */\n      swap2\n      swap1\n      pop\n      jump\t// out\n        /* \"#utility.yul\":1187:1296   */\n    tag_142:\n        /* \"#utility.yul\":1268:1289   */\n      tag_208\n        /* \"#utility.yul\":1283:1288   */\n      dup2\n        /* \"#utility.yul\":1268:1289   */\n      tag_141\n      jump\t// in\n    tag_208:\n        /* \"#utility.yul\":1263:1266   */\n      dup3\n        /* \"#utility.yul\":1256:1290   */\n      mstore\n        /* \"#utility.yul\":1187:1296   */\n      pop\n      pop\n      jump\t// out\n        /* \"#utility.yul\":1302:1512   */\n    tag_19:\n        /* \"#utility.yul\":1389:1393   */\n      0x00\n        /* \"#utility.yul\":1427:1429   */\n      0x20\n        /* \"#utility.yul\":1416:1425   */\n      dup3\n        /* \"#utility.yul\":1412:1430   */\n      add\n        /* \"#utility.yul\":1404:1430   */\n      swap1\n      pop\n        /* \"#utility.yul\":1440:1505   */\n      tag_210\n        /* \"#utility.yul\":1502:1503   */\n      0x00\n        /* \"#utility.yul\":1491:1500   */\n      dup4\n        /* \"#utility.yul\":1487:1504   */\n      add\n        /* \"#utility.yul\":1478:1484   */\n      dup5\n        /* \"#utility.yul\":1440:1505   */\n      tag_142\n      jump\t// in\n    tag_210:\n        /* \"#utility.yul\":1302:1512   */\n      swap3\n      swap2\n      pop\n      pop\n      jump\t// out\n        /* \"#utility.yul\":1518:1595   */\n    tag_143:\n        /* \"#utility.yul\":1555:1562   */\n      0x00\n        /* \"#utility.yul\":1584:1589   */\n      dup2\n        /* \"#utility.yul\":1573:1589   */\n      swap1\n      pop\n        /* \"#utility.yul\":1518:1595   */\n      swap2\n      swap1\n      pop\n      jump\t// out\n        /* \"#utility.yul\":1601:1723   */\n    tag_144:\n        /* \"#utility.yul\":1674:1698   */\n      tag_213\n        /* \"#utility.yul\":1692:1697   */\n      dup2\n        /* \"#utility.yul\":1674:1698   */\n      tag_143\n      jump\t// in\n    tag_213:\n        /* \"#utility.yul\":1667:1672   */\n      dup2\n        /* \"#utility.yul\":1664:1699   */\n      eq\n        /* \"#utility.yul\":1654:1717   */\n      tag_214\n      jumpi\n        /* \"#utility.yul\":1713:1714   */\n      0x00\n        /* \"#utility.yul\":1710:1711   */\n      dup1\n        /* \"#utility.yul\":1703:1715   */\n      revert\n        /* \"#utility.yul\":1654:1717   */\n    tag_214:\n        /* \"#utility.yul\":1601:1723   */\n      pop\n      jump\t// out\n        /* \"#utility.yul\":1729:1868   */\n    tag_145:\n        /* \"#utility.yul\":1775:1780   */\n      0x00\n        /* \"#utility.yul\":1813:1819   */\n      dup2\n        /* \"#utility.yul\":1800:1820   */\n      calldataload\n        /* \"#utility.yul\":1791:1820   */\n      swap1\n      pop\n        /* \"#utility.yul\":1829:1862   */\n      tag_216\n        /* \"#utility.yul\":1856:1861   */\n      dup2\n        /* \"#utility.yul\":1829:1862   */\n      tag_144\n      jump\t// in\n    tag_216:\n        /* \"#utility.yul\":1729:1868   */\n      swap3\n      swap2\n      pop\n      pop\n      jump\t// out\n        /* \"#utility.yul\":1874:1991   */\n    tag_146:\n        /* \"#utility.yul\":1983:1984   */\n      0x00\n        /* \"#utility.yul\":1980:1981   */\n      dup1\n        /* \"#utility.yul\":1973:1985   */\n      revert\n        /* \"#utility.yul\":1997:2114   */\n    tag_147:\n        /* \"#utility.yul\":2106:2107   */\n      0x00\n        /* \"#utility.yul\":2103:2104   */\n      dup1\n        /* \"#utility.yul\":2096:2108   */\n      revert\n        /* \"#utility.yul\":2120:2222   */\n    tag_148:\n        /* \"#utility.yul\":2161:2167   */\n      0x00\n        /* \"#utility.yul\":2212:2214   */\n      0x1f\n        /* \"#utility.yul\":2208:2215   */\n      not\n        /* \"#utility.yul\":2203:2205   */\n      0x1f\n        /* \"#utility.yul\":2196:2201   */\n      dup4\n        /* \"#utility.yul\":2192:2206   */\n      add\n        /* \"#utility.yul\":2188:2216   */\n      and\n        /* \"#utility.yul\":2178:2216   */\n      swap1\n      pop\n        /* \"#utility.yul\":2120:2222   */\n      swap2\n      swap1\n      pop\n      jump\t// out\n        /* \"#utility.yul\":2228:2408   */\n    tag_93:\n        /* \"#utility.yul\":2276:2353   */\n      0x4e487b7100000000000000000000000000000000000000000000000000000000\n        /* \"#utility.yul\":2273:2274   */\n      0x00\n        /* \"#utility.yul\":2266:2354   */\n      mstore\n        /* \"#utility.yul\":2373:2377   */\n      0x41\n        /* \"#utility.yul\":2370:2371   */\n      0x04\n        /* \"#utility.yul\":2363:2378   */\n      mstore\n        /* \"#utility.yul\":2397:2401   */\n      0x24\n        /* \"#utility.yul\":2394:2395   */\n      0x00\n        /* \"#utility.yul\":2387:2402   */\n      revert\n        /* \"#utility.yul\":2414:2695   */\n    tag_149:\n        /* \"#utility.yul\":2497:2524   */\n      tag_222\n        /* \"#utility.yul\":2519:2523   */\n      dup3\n        /* \"#utility.yul\":2497:2524   */\n      tag_148\n      jump\t// in\n    tag_222:\n        /* \"#utility.yul\":2489:2495   */\n      dup2\n        /* \"#utility.yul\":2485:2525   */\n      add\n        /* \"#utility.yul\":2627:2633   */\n      dup2\n        /* \"#utility.yul\":2615:2625   */\n      dup2\n        /* \"#utility.yul\":2612:2634   */\n      lt\n        /* \"#utility.yul\":2591:2609   */\n      0xffffffffffffffff\n        /* \"#utility.yul\":2579:2589   */\n      dup3\n        /* \"#utility.yul\":2576:2610   */\n      gt\n        /* \"#utility.yul\":2573:2635   */\n      or\n        /* \"#utility.yul\":2570:2658   */\n      iszero\n      tag_223\n      jumpi\n        /* \"#utility.yul\":2638:2656   */\n      tag_224\n      tag_93\n      jump\t// in\n    tag_224:\n        /* \"#utility.yul\":2570:2658   */\n    tag_223:\n        /* \"#utility.yul\":2678:2688   */\n      dup1\n        /* \"#utility.yul\":2674:2676   */\n      0x40\n        /* \"#utility.yul\":2667:2689   */\n      mstore\n        /* \"#utility.yul\":2457:2695   */\n      pop\n        /* \"#utility.yul\":2414:2695   */\n      pop\n      pop\n      jump\t// out\n        /* \"#utility.yul\":2701:2830   */\n    tag_150:\n        /* \"#utility.yul\":2735:2741   */\n      0x00\n        /* \"#utility.yul\":2762:2782   */\n      tag_226\n      tag_135\n      jump\t// in\n    tag_226:\n        /* \"#utility.yul\":2752:2782   */\n      swap1\n      pop\n        /* \"#utility.yul\":2791:2824   */\n      tag_227\n        /* \"#utility.yul\":2819:2823   */\n      dup3\n        /* \"#utility.yul\":2811:2817   */\n      dup3\n        /* \"#utility.yul\":2791:2824   */\n      tag_149\n      jump\t// in\n    tag_227:\n        /* \"#utility.yul\":2701:2830   */\n      swap2\n      swap1\n      pop\n      jump\t// out\n        /* \"#utility.yul\":2836:3143   */\n    tag_151:\n        /* \"#utility.yul\":2897:2901   */\n      0x00\n        /* \"#utility.yul\":2987:3005   */\n      0xffffffffffffffff\n        /* \"#utility.yul\":2979:2985   */\n      dup3\n        /* \"#utility.yul\":2976:3006   */\n      gt\n        /* \"#utility.yul\":2973:3029   */\n      iszero\n      tag_229\n      jumpi\n        /* \"#utility.yul\":3009:3027   */\n      tag_230\n      tag_93\n      jump\t// in\n    tag_230:\n        /* \"#utility.yul\":2973:3029   */\n    tag_229:\n        /* \"#utility.yul\":3047:3076   */\n      tag_231\n        /* \"#utility.yul\":3069:3075   */\n      dup3\n        /* \"#utility.yul\":3047:3076   */\n      tag_148\n      jump\t// in\n    tag_231:\n        /* \"#utility.yul\":3039:3076   */\n      swap1\n      pop\n        /* \"#utility.yul\":3131:3135   */\n      0x20\n        /* \"#utility.yul\":3125:3129   */\n      dup2\n        /* \"#utility.yul\":3121:3136   */\n      add\n        /* \"#utility.yul\":3113:3136   */\n      swap1\n      pop\n        /* \"#utility.yul\":2836:3143   */\n      swap2\n      swap1\n      pop\n      jump\t// out\n        /* \"#utility.yul\":3149:3295   */\n    tag_152:\n        /* \"#utility.yul\":3246:3252   */\n      dup3\n        /* \"#utility.yul\":3241:3244   */\n      dup2\n        /* \"#utility.yul\":3236:3239   */\n      dup4\n        /* \"#utility.yul\":3223:3253   */\n      calldatacopy\n        /* \"#utility.yul\":3287:3288   */\n      0x00\n        /* \"#utility.yul\":3278:3284   */\n      dup4\n        /* \"#utility.yul\":3273:3276   */\n      dup4\n        /* \"#utility.yul\":3269:3285   */\n      add\n        /* \"#utility.yul\":3262:3289   */\n      mstore\n        /* \"#utility.yul\":3149:3295   */\n      pop\n      pop\n      pop\n      jump\t// out\n        /* \"#utility.yul\":3301:3724   */\n    tag_153:\n        /* \"#utility.yul\":3378:3383   */\n      0x00\n        /* \"#utility.yul\":3403:3468   */\n      tag_234\n        /* \"#utility.yul\":3419:3467   */\n      tag_235\n        /* \"#utility.yul\":3460:3466   */\n      dup5\n        /* \"#utility.yul\":3419:3467   */\n      tag_151\n      jump\t// in\n    tag_235:\n        /* \"#utility.yul\":3403:3468   */\n      tag_150\n      jump\t// in\n    tag_234:\n        /* \"#utility.yul\":3394:3468   */\n      swap1\n      pop\n        /* \"#utility.yul\":3491:3497   */\n      dup3\n        /* \"#utility.yul\":3484:3489   */\n      dup2\n        /* \"#utility.yul\":3477:3498   */\n      mstore\n        /* \"#utility.yul\":3529:3533   */\n      0x20\n        /* \"#utility.yul\":3522:3527   */\n      dup2\n        /* \"#utility.yul\":3518:3534   */\n      add\n        /* \"#utility.yul\":3567:3570   */\n      dup5\n        /* \"#utility.yul\":3558:3564   */\n      dup5\n        /* \"#utility.yul\":3553:3556   */\n      dup5\n        /* \"#utility.yul\":3549:3565   */\n      add\n        /* \"#utility.yul\":3546:3571   */\n      gt\n        /* \"#utility.yul\":3543:3655   */\n      iszero\n      tag_236\n      jumpi\n        /* \"#utility.yul\":3574:3653   */\n      tag_237\n      tag_147\n      jump\t// in\n    tag_237:\n        /* \"#utility.yul\":3543:3655   */\n    tag_236:\n        /* \"#utility.yul\":3664:3718   */\n      tag_238\n        /* \"#utility.yul\":3711:3717   */\n      dup5\n        /* \"#utility.yul\":3706:3709   */\n      dup3\n        /* \"#utility.yul\":3701:3704   */\n      dup6\n        /* \"#utility.yul\":3664:3718   */\n      tag_152\n      jump\t// in\n    tag_238:\n        /* \"#utility.yul\":3384:3724   */\n      pop\n        /* \"#utility.yul\":3301:3724   */\n      swap4\n      swap3\n      pop\n      pop\n      pop\n      jump\t// out\n        /* \"#utility.yul\":3743:4081   */\n    tag_154:\n        /* \"#utility.yul\":3798:3803   */\n      0x00\n        /* \"#utility.yul\":3847:3850   */\n      dup3\n        /* \"#utility.yul\":3840:3844   */\n      0x1f\n        /* \"#utility.yul\":3832:3838   */\n      dup4\n        /* \"#utility.yul\":3828:3845   */\n      add\n        /* \"#utility.yul\":3824:3851   */\n      slt\n        /* \"#utility.yul\":3814:3936   */\n      tag_240\n      jumpi\n        /* \"#utility.yul\":3855:3934   */\n      tag_241\n      tag_146\n      jump\t// in\n    tag_241:\n        /* \"#utility.yul\":3814:3936   */\n    tag_240:\n        /* \"#utility.yul\":3972:3978   */\n      dup2\n        /* \"#utility.yul\":3959:3979   */\n      calldataload\n        /* \"#utility.yul\":3997:4075   */\n      tag_242\n        /* \"#utility.yul\":4071:4074   */\n      dup5\n        /* \"#utility.yul\":4063:4069   */\n      dup3\n        /* \"#utility.yul\":4056:4060   */\n      0x20\n        /* \"#utility.yul\":4048:4054   */\n      dup7\n        /* \"#utility.yul\":4044:4061   */\n      add\n        /* \"#utility.yul\":3997:4075   */\n      tag_153\n      jump\t// in\n    tag_242:\n        /* \"#utility.yul\":3988:4075   */\n      swap2\n      pop\n        /* \"#utility.yul\":3804:4081   */\n      pop\n        /* \"#utility.yul\":3743:4081   */\n      swap3\n      swap2\n      pop\n      pop\n      jump\t// out\n        /* \"#utility.yul\":4087:4739   */\n    tag_23:\n        /* \"#utility.yul\":4164:4170   */\n      0x00\n        /* \"#utility.yul\":4172:4178   */\n      dup1\n        /* \"#utility.yul\":4221:4223   */\n      0x40\n        /* \"#utility.yul\":4209:4218   */\n      dup4\n        /* \"#utility.yul\":4200:4207   */\n      dup6\n        /* \"#utility.yul\":4196:4219   */\n      sub\n        /* \"#utility.yul\":4192:4224   */\n      slt\n        /* \"#utility.yul\":4189:4308   */\n      iszero\n      tag_244\n      jumpi\n        /* \"#utility.yul\":4227:4306   */\n      tag_245\n      tag_136\n      jump\t// in\n    tag_245:\n        /* \"#utility.yul\":4189:4308   */\n    tag_244:\n        /* \"#utility.yul\":4347:4348   */\n      0x00\n        /* \"#utility.yul\":4372:4425   */\n      tag_246\n        /* \"#utility.yul\":4417:4424   */\n      dup6\n        /* \"#utility.yul\":4408:4414   */\n      dup3\n        /* \"#utility.yul\":4397:4406   */\n      dup7\n        /* \"#utility.yul\":4393:4415   */\n      add\n        /* \"#utility.yul\":4372:4425   */\n      tag_145\n      jump\t// in\n    tag_246:\n        /* \"#utility.yul\":4362:4425   */\n      swap3\n      pop\n        /* \"#utility.yul\":4318:4435   */\n      pop\n        /* \"#utility.yul\":4502:4504   */\n      0x20\n        /* \"#utility.yul\":4491:4500   */\n      dup4\n        /* \"#utility.yul\":4487:4505   */\n      add\n        /* \"#utility.yul\":4474:4506   */\n      calldataload\n        /* \"#utility.yul\":4533:4551   */\n      0xffffffffffffffff\n        /* \"#utility.yul\":4525:4531   */\n      dup2\n        /* \"#utility.yul\":4522:4552   */\n      gt\n        /* \"#utility.yul\":4519:4636   */\n      iszero\n      tag_247\n      jumpi\n        /* \"#utility.yul\":4555:4634   */\n      tag_248\n      tag_137\n      jump\t// in\n    tag_248:\n        /* \"#utility.yul\":4519:4636   */\n    tag_247:\n        /* \"#utility.yul\":4660:4722   */\n      tag_249\n        /* \"#utility.yul\":4714:4721   */\n      dup6\n        /* \"#utility.yul\":4705:4711   */\n      dup3\n        /* \"#utility.yul\":4694:4703   */\n      dup7\n        /* \"#utility.yul\":4690:4712   */\n      add\n        /* \"#utility.yul\":4660:4722   */\n      tag_154\n      jump\t// in\n    tag_249:\n        /* \"#utility.yul\":4650:4722   */\n      swap2\n      pop\n        /* \"#utility.yul\":4445:4732   */\n      pop\n        /* \"#utility.yul\":4087:4739   */\n      swap3\n      pop\n      swap3\n      swap1\n      pop\n      jump\t// out\n        /* \"#utility.yul\":4745:4860   */\n    tag_155:\n        /* \"#utility.yul\":4830:4853   */\n      tag_251\n        /* \"#utility.yul\":4847:4852   */\n      dup2\n        /* \"#utility.yul\":4830:4853   */\n      tag_138\n      jump\t// in\n    tag_251:\n        /* \"#utility.yul\":4825:4828   */\n      dup3\n        /* \"#utility.yul\":4818:4854   */\n      mstore\n        /* \"#utility.yul\":4745:4860   */\n      pop\n      pop\n      jump\t// out\n        /* \"#utility.yul\":4866:5084   */\n    tag_26:\n        /* \"#utility.yul\":4957:4961   */\n      0x00\n        /* \"#utility.yul\":4995:4997   */\n      0x20\n        /* \"#utility.yul\":4984:4993   */\n      dup3\n        /* \"#utility.yul\":4980:4998   */\n      add\n        /* \"#utility.yul\":4972:4998   */\n      swap1\n      pop\n        /* \"#utility.yul\":5008:5077   */\n      tag_253\n        /* \"#utility.yul\":5074:5075   */\n      0x00\n        /* \"#utility.yul\":5063:5072   */\n      dup4\n        /* \"#utility.yul\":5059:5076   */\n      add\n        /* \"#utility.yul\":5050:5056   */\n      dup5\n        /* \"#utility.yul\":5008:5077   */\n      tag_155\n      jump\t// in\n    tag_253:\n        /* \"#utility.yul\":4866:5084   */\n      swap3\n      swap2\n      pop\n      pop\n      jump\t// out\n        /* \"#utility.yul\":5090:5216   */\n    tag_156:\n        /* \"#utility.yul\":5127:5134   */\n      0x00\n        /* \"#utility.yul\":5167:5209   */\n      0xffffffffffffffffffffffffffffffffffffffff\n        /* \"#utility.yul\":5160:5165   */\n      dup3\n        /* \"#utility.yul\":5156:5210   */\n      and\n        /* \"#utility.yul\":5145:5210   */\n      swap1\n      pop\n        /* \"#utility.yul\":5090:5216   */\n      swap2\n      swap1\n      pop\n      jump\t// out\n        /* \"#utility.yul\":5222:5318   */\n    tag_157:\n        /* \"#utility.yul\":5259:5266   */\n      0x00\n        /* \"#utility.yul\":5288:5312   */\n      tag_256\n        /* \"#utility.yul\":5306:5311   */\n      dup3\n        /* \"#utility.yul\":5288:5312   */\n      tag_156\n      jump\t// in\n    tag_256:\n        /* \"#utility.yul\":5277:5312   */\n      swap1\n      pop\n        /* \"#utility.yul\":5222:5318   */\n      swap2\n      swap1\n      pop\n      jump\t// out\n        /* \"#utility.yul\":5324:5446   */\n    tag_158:\n        /* \"#utility.yul\":5397:5421   */\n      tag_258\n        /* \"#utility.yul\":5415:5420   */\n      dup2\n        /* \"#utility.yul\":5397:5421   */\n      tag_157\n      jump\t// in\n    tag_258:\n        /* \"#utility.yul\":5390:5395   */\n      dup2\n        /* \"#utility.yul\":5387:5422   */\n      eq\n        /* \"#utility.yul\":5377:5440   */\n      tag_259\n      jumpi\n        /* \"#utility.yul\":5436:5437   */\n      0x00\n        /* \"#utility.yul\":5433:5434   */\n      dup1\n        /* \"#utility.yul\":5426:5438   */\n      revert\n        /* \"#utility.yul\":5377:5440   */\n    tag_259:\n        /* \"#utility.yul\":5324:5446   */\n      pop\n      jump\t// out\n        /* \"#utility.yul\":5452:5591   */\n    tag_159:\n        /* \"#utility.yul\":5498:5503   */\n      0x00\n        /* \"#utility.yul\":5536:5542   */\n      dup2\n        /* \"#utility.yul\":5523:5543   */\n      calldataload\n        /* \"#utility.yul\":5514:5543   */\n      swap1\n      pop\n        /* \"#utility.yul\":5552:5585   */\n      tag_261\n        /* \"#utility.yul\":5579:5584   */\n      dup2\n        /* \"#utility.yul\":5552:5585   */\n      tag_158\n      jump\t// in\n    tag_261:\n        /* \"#utility.yul\":5452:5591   */\n      swap3\n      swap2\n      pop\n      pop\n      jump\t// out\n        /* \"#utility.yul\":5597:5674   */\n    tag_160:\n        /* \"#utility.yul\":5634:5641   */\n      0x00\n        /* \"#utility.yul\":5663:5668   */\n      dup2\n        /* \"#utility.yul\":5652:5668   */\n      swap1\n      pop\n        /* \"#utility.yul\":5597:5674   */\n      swap2\n      swap1\n      pop\n      jump\t// out\n        /* \"#utility.yul\":5680:5802   */\n    tag_161:\n        /* \"#utility.yul\":5753:5777   */\n      tag_264\n        /* \"#utility.yul\":5771:5776   */\n      dup2\n        /* \"#utility.yul\":5753:5777   */\n      tag_160\n      jump\t// in\n    tag_264:\n        /* \"#utility.yul\":5746:5751   */\n      dup2\n        /* \"#utility.yul\":5743:5778   */\n      eq\n        /* \"#utility.yul\":5733:5796   */\n      tag_265\n      jumpi\n        /* \"#utility.yul\":5792:5793   */\n      0x00\n        /* \"#utility.yul\":5789:5790   */\n      dup1\n        /* \"#utility.yul\":5782:5794   */\n      revert\n        /* \"#utility.yul\":5733:5796   */\n    tag_265:\n        /* \"#utility.yul\":5680:5802   */\n      pop\n      jump\t// out\n        /* \"#utility.yul\":5808:5947   */\n    tag_162:\n        /* \"#utility.yul\":5854:5859   */\n      0x00\n        /* \"#utility.yul\":5892:5898   */\n      dup2\n        /* \"#utility.yul\":5879:5899   */\n      calldataload\n        /* \"#utility.yul\":5870:5899   */\n      swap1\n      pop\n        /* \"#utility.yul\":5908:5941   */\n      tag_267\n        /* \"#utility.yul\":5935:5940   */\n      dup2\n        /* \"#utility.yul\":5908:5941   */\n      tag_161\n      jump\t// in\n    tag_267:\n        /* \"#utility.yul\":5808:5947   */\n      swap3\n      swap2\n      pop\n      pop\n      jump\t// out\n        /* \"#utility.yul\":5953:6070   */\n    tag_163:\n        /* \"#utility.yul\":6062:6063   */\n      0x00\n        /* \"#utility.yul\":6059:6060   */\n      dup1\n        /* \"#utility.yul\":6052:6064   */\n      revert\n        /* \"#utility.yul\":6076:6193   */\n    tag_164:\n        /* \"#utility.yul\":6185:6186   */\n      0x00\n        /* \"#utility.yul\":6182:6183   */\n      dup1\n        /* \"#utility.yul\":6175:6187   */\n      revert\n        /* \"#utility.yul\":6212:6764   */\n    tag_165:\n        /* \"#utility.yul\":6269:6277   */\n      0x00\n        /* \"#utility.yul\":6279:6285   */\n      dup1\n        /* \"#utility.yul\":6329:6332   */\n      dup4\n        /* \"#utility.yul\":6322:6326   */\n      0x1f\n        /* \"#utility.yul\":6314:6320   */\n      dup5\n        /* \"#utility.yul\":6310:6327   */\n      add\n        /* \"#utility.yul\":6306:6333   */\n      slt\n        /* \"#utility.yul\":6296:6418   */\n      tag_271\n      jumpi\n        /* \"#utility.yul\":6337:6416   */\n      tag_272\n      tag_146\n      jump\t// in\n    tag_272:\n        /* \"#utility.yul\":6296:6418   */\n    tag_271:\n        /* \"#utility.yul\":6450:6456   */\n      dup3\n        /* \"#utility.yul\":6437:6457   */\n      calldataload\n        /* \"#utility.yul\":6427:6457   */\n      swap1\n      pop\n        /* \"#utility.yul\":6480:6498   */\n      0xffffffffffffffff\n        /* \"#utility.yul\":6472:6478   */\n      dup2\n        /* \"#utility.yul\":6469:6499   */\n      gt\n        /* \"#utility.yul\":6466:6583   */\n      iszero\n      tag_273\n      jumpi\n        /* \"#utility.yul\":6502:6581   */\n      tag_274\n      tag_163\n      jump\t// in\n    tag_274:\n        /* \"#utility.yul\":6466:6583   */\n    tag_273:\n        /* \"#utility.yul\":6616:6620   */\n      0x20\n        /* \"#utility.yul\":6608:6614   */\n      dup4\n        /* \"#utility.yul\":6604:6621   */\n      add\n        /* \"#utility.yul\":6592:6621   */\n      swap2\n      pop\n        /* \"#utility.yul\":6670:6673   */\n      dup4\n        /* \"#utility.yul\":6662:6666   */\n      0x01\n        /* \"#utility.yul\":6654:6660   */\n      dup3\n        /* \"#utility.yul\":6650:6667   */\n      mul\n        /* \"#utility.yul\":6640:6648   */\n      dup4\n        /* \"#utility.yul\":6636:6668   */\n      add\n        /* \"#utility.yul\":6633:6674   */\n      gt\n        /* \"#utility.yul\":6630:6758   */\n      iszero\n      tag_275\n      jumpi\n        /* \"#utility.yul\":6677:6756   */\n      tag_276\n      tag_164\n      jump\t// in\n    tag_276:\n        /* \"#utility.yul\":6630:6758   */\n    tag_275:\n        /* \"#utility.yul\":6212:6764   */\n      swap3\n      pop\n      swap3\n      swap1\n      pop\n      jump\t// out\n        /* \"#utility.yul\":6770:6856   */\n    tag_166:\n        /* \"#utility.yul\":6805:6812   */\n      0x00\n        /* \"#utility.yul\":6845:6849   */\n      0xff\n        /* \"#utility.yul\":6838:6843   */\n      dup3\n        /* \"#utility.yul\":6834:6850   */\n      and\n        /* \"#utility.yul\":6823:6850   */\n      swap1\n      pop\n        /* \"#utility.yul\":6770:6856   */\n      swap2\n      swap1\n      pop\n      jump\t// out\n        /* \"#utility.yul\":6862:6980   */\n    tag_167:\n        /* \"#utility.yul\":6933:6955   */\n      tag_279\n        /* \"#utility.yul\":6949:6954   */\n      dup2\n        /* \"#utility.yul\":6933:6955   */\n      tag_166\n      jump\t// in\n    tag_279:\n        /* \"#utility.yul\":6926:6931   */\n      dup2\n        /* \"#utility.yul\":6923:6956   */\n      eq\n        /* \"#utility.yul\":6913:6974   */\n      tag_280\n      jumpi\n        /* \"#utility.yul\":6970:6971   */\n      0x00\n        /* \"#utility.yul\":6967:6968   */\n      dup1\n        /* \"#utility.yul\":6960:6972   */\n      revert\n        /* \"#utility.yul\":6913:6974   */\n    tag_280:\n        /* \"#utility.yul\":6862:6980   */\n      pop\n      jump\t// out\n        /* \"#utility.yul\":6986:7121   */\n    tag_168:\n        /* \"#utility.yul\":7030:7035   */\n      0x00\n        /* \"#utility.yul\":7068:7074   */\n      dup2\n        /* \"#utility.yul\":7055:7075   */\n      calldataload\n        /* \"#utility.yul\":7046:7075   */\n      swap1\n      pop\n        /* \"#utility.yul\":7084:7115   */\n      tag_282\n        /* \"#utility.yul\":7109:7114   */\n      dup2\n        /* \"#utility.yul\":7084:7115   */\n      tag_167\n      jump\t// in\n    tag_282:\n        /* \"#utility.yul\":6986:7121   */\n      swap3\n      swap2\n      pop\n      pop\n      jump\t// out\n        /* \"#utility.yul\":7127:8086   */\n    tag_29:\n        /* \"#utility.yul\":7222:7228   */\n      0x00\n        /* \"#utility.yul\":7230:7236   */\n      dup1\n        /* \"#utility.yul\":7238:7244   */\n      0x00\n        /* \"#utility.yul\":7246:7252   */\n      dup1\n        /* \"#utility.yul\":7254:7260   */\n      0x00\n        /* \"#utility.yul\":7303:7306   */\n      0x80\n        /* \"#utility.yul\":7291:7300   */\n      dup7\n        /* \"#utility.yul\":7282:7289   */\n      dup9\n        /* \"#utility.yul\":7278:7301   */\n      sub\n        /* \"#utility.yul\":7274:7307   */\n      slt\n        /* \"#utility.yul\":7271:7391   */\n      iszero\n      tag_284\n      jumpi\n        /* \"#utility.yul\":7310:7389   */\n      tag_285\n      tag_136\n      jump\t// in\n    tag_285:\n        /* \"#utility.yul\":7271:7391   */\n    tag_284:\n        /* \"#utility.yul\":7430:7431   */\n      0x00\n        /* \"#utility.yul\":7455:7508   */\n      tag_286\n        /* \"#utility.yul\":7500:7507   */\n      dup9\n        /* \"#utility.yul\":7491:7497   */\n      dup3\n        /* \"#utility.yul\":7480:7489   */\n      dup10\n        /* \"#utility.yul\":7476:7498   */\n      add\n        /* \"#utility.yul\":7455:7508   */\n      tag_159\n      jump\t// in\n    tag_286:\n        /* \"#utility.yul\":7445:7508   */\n      swap6\n      pop\n        /* \"#utility.yul\":7401:7518   */\n      pop\n        /* \"#utility.yul\":7557:7559   */\n      0x20\n        /* \"#utility.yul\":7583:7636   */\n      tag_287\n        /* \"#utility.yul\":7628:7635   */\n      dup9\n        /* \"#utility.yul\":7619:7625   */\n      dup3\n        /* \"#utility.yul\":7608:7617   */\n      dup10\n        /* \"#utility.yul\":7604:7626   */\n      add\n        /* \"#utility.yul\":7583:7636   */\n      tag_162\n      jump\t// in\n    tag_287:\n        /* \"#utility.yul\":7573:7636   */\n      swap5\n      pop\n        /* \"#utility.yul\":7528:7646   */\n      pop\n        /* \"#utility.yul\":7713:7715   */\n      0x40\n        /* \"#utility.yul\":7702:7711   */\n      dup7\n        /* \"#utility.yul\":7698:7716   */\n      add\n        /* \"#utility.yul\":7685:7717   */\n      calldataload\n        /* \"#utility.yul\":7744:7762   */\n      0xffffffffffffffff\n        /* \"#utility.yul\":7736:7742   */\n      dup2\n        /* \"#utility.yul\":7733:7763   */\n      gt\n        /* \"#utility.yul\":7730:7847   */\n      iszero\n      tag_288\n      jumpi\n        /* \"#utility.yul\":7766:7845   */\n      tag_289\n      tag_137\n      jump\t// in\n    tag_289:\n        /* \"#utility.yul\":7730:7847   */\n    tag_288:\n        /* \"#utility.yul\":7879:7943   */\n      tag_290\n        /* \"#utility.yul\":7935:7942   */\n      dup9\n        /* \"#utility.yul\":7926:7932   */\n      dup3\n        /* \"#utility.yul\":7915:7924   */\n      dup10\n        /* \"#utility.yul\":7911:7933   */\n      add\n        /* \"#utility.yul\":7879:7943   */\n      tag_165\n      jump\t// in\n    tag_290:\n        /* \"#utility.yul\":7861:7943   */\n      swap4\n      pop\n      swap4\n      pop\n        /* \"#utility.yul\":7656:7953   */\n      pop\n        /* \"#utility.yul\":7992:7994   */\n      0x60\n        /* \"#utility.yul\":8018:8069   */\n      tag_291\n        /* \"#utility.yul\":8061:8068   */\n      dup9\n        /* \"#utility.yul\":8052:8058   */\n      dup3\n        /* \"#utility.yul\":8041:8050   */\n      dup10\n        /* \"#utility.yul\":8037:8059   */\n      add\n        /* \"#utility.yul\":8018:8069   */\n      tag_168\n      jump\t// in\n    tag_291:\n        /* \"#utility.yul\":8008:8069   */\n      swap2\n      pop\n        /* \"#utility.yul\":7963:8079   */\n      pop\n        /* \"#utility.yul\":7127:8086   */\n      swap3\n      swap6\n      pop\n      swap3\n      swap6\n      swap1\n      swap4\n      pop\n      jump\t// out\n        /* \"#utility.yul\":8092:8190   */\n    tag_169:\n        /* \"#utility.yul\":8143:8149   */\n      0x00\n        /* \"#utility.yul\":8177:8182   */\n      dup2\n        /* \"#utility.yul\":8171:8183   */\n      mload\n        /* \"#utility.yul\":8161:8183   */\n      swap1\n      pop\n        /* \"#utility.yul\":8092:8190   */\n      swap2\n      swap1\n      pop\n      jump\t// out\n        /* \"#utility.yul\":8196:8364   */\n    tag_170:\n        /* \"#utility.yul\":8279:8290   */\n      0x00\n        /* \"#utility.yul\":8313:8319   */\n      dup3\n        /* \"#utility.yul\":8308:8311   */\n      dup3\n        /* \"#utility.yul\":8301:8320   */\n      mstore\n        /* \"#utility.yul\":8353:8357   */\n      0x20\n        /* \"#utility.yul\":8348:8351   */\n      dup3\n        /* \"#utility.yul\":8344:8358   */\n      add\n        /* \"#utility.yul\":8329:8358   */\n      swap1\n      pop\n        /* \"#utility.yul\":8196:8364   */\n      swap3\n      swap2\n      pop\n      pop\n      jump\t// out\n        /* \"#utility.yul\":8370:8616   */\n    tag_171:\n        /* \"#utility.yul\":8451:8452   */\n      0x00\n        /* \"#utility.yul\":8461:8574   */\n    tag_295:\n        /* \"#utility.yul\":8475:8481   */\n      dup4\n        /* \"#utility.yul\":8472:8473   */\n      dup2\n        /* \"#utility.yul\":8469:8482   */\n      lt\n        /* \"#utility.yul\":8461:8574   */\n      iszero\n      tag_297\n      jumpi\n        /* \"#utility.yul\":8560:8561   */\n      dup1\n        /* \"#utility.yul\":8555:8558   */\n      dup3\n        /* \"#utility.yul\":8551:8562   */\n      add\n        /* \"#utility.yul\":8545:8563   */\n      mload\n        /* \"#utility.yul\":8541:8542   */\n      dup2\n        /* \"#utility.yul\":8536:8539   */\n      dup5\n        /* \"#utility.yul\":8532:8543   */\n      add\n        /* \"#utility.yul\":8525:8564   */\n      mstore\n        /* \"#utility.yul\":8497:8499   */\n      0x20\n        /* \"#utility.yul\":8494:8495   */\n      dup2\n        /* \"#utility.yul\":8490:8500   */\n      add\n        /* \"#utility.yul\":8485:8500   */\n      swap1\n      pop\n        /* \"#utility.yul\":8461:8574   */\n      jump(tag_295)\n    tag_297:\n        /* \"#utility.yul\":8608:8609   */\n      0x00\n        /* \"#utility.yul\":8599:8605   */\n      dup5\n        /* \"#utility.yul\":8594:8597   */\n      dup5\n        /* \"#utility.yul\":8590:8606   */\n      add\n        /* \"#utility.yul\":8583:8610   */\n      mstore\n        /* \"#utility.yul\":8432:8616   */\n      pop\n        /* \"#utility.yul\":8370:8616   */\n      pop\n      pop\n      pop\n      jump\t// out\n        /* \"#utility.yul\":8622:8995   */\n    tag_172:\n        /* \"#utility.yul\":8708:8711   */\n      0x00\n        /* \"#utility.yul\":8736:8774   */\n      tag_299\n        /* \"#utility.yul\":8768:8773   */\n      dup3\n        /* \"#utility.yul\":8736:8774   */\n      tag_169\n      jump\t// in\n    tag_299:\n        /* \"#utility.yul\":8790:8860   */\n      tag_300\n        /* \"#utility.yul\":8853:8859   */\n      dup2\n        /* \"#utility.yul\":8848:8851   */\n      dup6\n        /* \"#utility.yul\":8790:8860   */\n      tag_170\n      jump\t// in\n    tag_300:\n        /* \"#utility.yul\":8783:8860   */\n      swap4\n      pop\n        /* \"#utility.yul\":8869:8934   */\n      tag_301\n        /* \"#utility.yul\":8927:8933   */\n      dup2\n        /* \"#utility.yul\":8922:8925   */\n      dup6\n        /* \"#utility.yul\":8915:8919   */\n      0x20\n        /* \"#utility.yul\":8908:8913   */\n      dup7\n        /* \"#utility.yul\":8904:8920   */\n      add\n        /* \"#utility.yul\":8869:8934   */\n      tag_171\n      jump\t// in\n    tag_301:\n        /* \"#utility.yul\":8959:8988   */\n      tag_302\n        /* \"#utility.yul\":8981:8987   */\n      dup2\n        /* \"#utility.yul\":8959:8988   */\n      tag_148\n      jump\t// in\n    tag_302:\n        /* \"#utility.yul\":8954:8957   */\n      dup5\n        /* \"#utility.yul\":8950:8989   */\n      add\n        /* \"#utility.yul\":8943:8989   */\n      swap2\n      pop\n        /* \"#utility.yul\":8712:8995   */\n      pop\n        /* \"#utility.yul\":8622:8995   */\n      swap3\n      swap2\n      pop\n      pop\n      jump\t// out\n        /* \"#utility.yul\":9001:9310   */\n    tag_32:\n        /* \"#utility.yul\":9112:9116   */\n      0x00\n        /* \"#utility.yul\":9150:9152   */\n      0x20\n        /* \"#utility.yul\":9139:9148   */\n      dup3\n        /* \"#utility.yul\":9135:9153   */\n      add\n        /* \"#utility.yul\":9127:9153   */\n      swap1\n      pop\n        /* \"#utility.yul\":9199:9208   */\n      dup2\n        /* \"#utility.yul\":9193:9197   */\n      dup2\n        /* \"#utility.yul\":9189:9209   */\n      sub\n        /* \"#utility.yul\":9185:9186   */\n      0x00\n        /* \"#utility.yul\":9174:9183   */\n      dup4\n        /* \"#utility.yul\":9170:9187   */\n      add\n        /* \"#utility.yul\":9163:9210   */\n      mstore\n        /* \"#utility.yul\":9227:9303   */\n      tag_304\n        /* \"#utility.yul\":9298:9302   */\n      dup2\n        /* \"#utility.yul\":9289:9295   */\n      dup5\n        /* \"#utility.yul\":9227:9303   */\n      tag_172\n      jump\t// in\n    tag_304:\n        /* \"#utility.yul\":9219:9303   */\n      swap1\n      pop\n        /* \"#utility.yul\":9001:9310   */\n      swap3\n      swap2\n      pop\n      pop\n      jump\t// out\n        /* \"#utility.yul\":9316:9988   */\n    tag_36:\n        /* \"#utility.yul\":9395:9401   */\n      0x00\n        /* \"#utility.yul\":9403:9409   */\n      dup1\n        /* \"#utility.yul\":9411:9417   */\n      0x00\n        /* \"#utility.yul\":9460:9462   */\n      0x40\n        /* \"#utility.yul\":9448:9457   */\n      dup5\n        /* \"#utility.yul\":9439:9446   */\n      dup7\n        /* \"#utility.yul\":9435:9458   */\n      sub\n        /* \"#utility.yul\":9431:9463   */\n      slt\n        /* \"#utility.yul\":9428:9547   */\n      iszero\n      tag_306\n      jumpi\n        /* \"#utility.yul\":9466:9545   */\n      tag_307\n      tag_136\n      jump\t// in\n    tag_307:\n        /* \"#utility.yul\":9428:9547   */\n    tag_306:\n        /* \"#utility.yul\":9586:9587   */\n      0x00\n        /* \"#utility.yul\":9611:9664   */\n      tag_308\n        /* \"#utility.yul\":9656:9663   */\n      dup7\n        /* \"#utility.yul\":9647:9653   */\n      dup3\n        /* \"#utility.yul\":9636:9645   */\n      dup8\n        /* \"#utility.yul\":9632:9654   */\n      add\n        /* \"#utility.yul\":9611:9664   */\n      tag_159\n      jump\t// in\n    tag_308:\n        /* \"#utility.yul\":9601:9664   */\n      swap4\n      pop\n        /* \"#utility.yul\":9557:9674   */\n      pop\n        /* \"#utility.yul\":9741:9743   */\n      0x20\n        /* \"#utility.yul\":9730:9739   */\n      dup5\n        /* \"#utility.yul\":9726:9744   */\n      add\n        /* \"#utility.yul\":9713:9745   */\n      calldataload\n        /* \"#utility.yul\":9772:9790   */\n      0xffffffffffffffff\n        /* \"#utility.yul\":9764:9770   */\n      dup2\n        /* \"#utility.yul\":9761:9791   */\n      gt\n        /* \"#utility.yul\":9758:9875   */\n      iszero\n      tag_309\n      jumpi\n        /* \"#utility.yul\":9794:9873   */\n      tag_310\n      tag_137\n      jump\t// in\n    tag_310:\n        /* \"#utility.yul\":9758:9875   */\n    tag_309:\n        /* \"#utility.yul\":9907:9971   */\n      tag_311\n        /* \"#utility.yul\":9963:9970   */\n      dup7\n        /* \"#utility.yul\":9954:9960   */\n      dup3\n        /* \"#utility.yul\":9943:9952   */\n      dup8\n        /* \"#utility.yul\":9939:9961   */\n      add\n        /* \"#utility.yul\":9907:9971   */\n      tag_165\n      jump\t// in\n    tag_311:\n        /* \"#utility.yul\":9889:9971   */\n      swap3\n      pop\n      swap3\n      pop\n        /* \"#utility.yul\":9684:9981   */\n      pop\n        /* \"#utility.yul\":9316:9988   */\n      swap3\n      pop\n      swap3\n      pop\n      swap3\n      jump\t// out\n        /* \"#utility.yul\":9994:10112   */\n    tag_173:\n        /* \"#utility.yul\":10081:10105   */\n      tag_313\n        /* \"#utility.yul\":10099:10104   */\n      dup2\n        /* \"#utility.yul\":10081:10105   */\n      tag_157\n      jump\t// in\n    tag_313:\n        /* \"#utility.yul\":10076:10079   */\n      dup3\n        /* \"#utility.yul\":10069:10106   */\n      mstore\n        /* \"#utility.yul\":9994:10112   */\n      pop\n      pop\n      jump\t// out\n        /* \"#utility.yul\":10118:10340   */\n    tag_43:\n        /* \"#utility.yul\":10211:10215   */\n      0x00\n        /* \"#utility.yul\":10249:10251   */\n      0x20\n        /* \"#utility.yul\":10238:10247   */\n      dup3\n        /* \"#utility.yul\":10234:10252   */\n      add\n        /* \"#utility.yul\":10226:10252   */\n      swap1\n      pop\n        /* \"#utility.yul\":10262:10333   */\n      tag_315\n        /* \"#utility.yul\":10330:10331   */\n      0x00\n        /* \"#utility.yul\":10319:10328   */\n      dup4\n        /* \"#utility.yul\":10315:10332   */\n      add\n        /* \"#utility.yul\":10306:10312   */\n      dup5\n        /* \"#utility.yul\":10262:10333   */\n      tag_173\n      jump\t// in\n    tag_315:\n        /* \"#utility.yul\":10118:10340   */\n      swap3\n      swap2\n      pop\n      pop\n      jump\t// out\n        /* \"#utility.yul\":10346:10464   */\n    tag_174:\n        /* \"#utility.yul\":10433:10457   */\n      tag_317\n        /* \"#utility.yul\":10451:10456   */\n      dup2\n        /* \"#utility.yul\":10433:10457   */\n      tag_160\n      jump\t// in\n    tag_317:\n        /* \"#utility.yul\":10428:10431   */\n      dup3\n        /* \"#utility.yul\":10421:10458   */\n      mstore\n        /* \"#utility.yul\":10346:10464   */\n      pop\n      pop\n      jump\t// out\n        /* \"#utility.yul\":10470:10692   */\n    tag_48:\n        /* \"#utility.yul\":10563:10567   */\n      0x00\n        /* \"#utility.yul\":10601:10603   */\n      0x20\n        /* \"#utility.yul\":10590:10599   */\n      dup3\n        /* \"#utility.yul\":10586:10604   */\n      add\n        /* \"#utility.yul\":10578:10604   */\n      swap1\n      pop\n        /* \"#utility.yul\":10614:10685   */\n      tag_319\n        /* \"#utility.yul\":10682:10683   */\n      0x00\n        /* \"#utility.yul\":10671:10680   */\n      dup4\n        /* \"#utility.yul\":10667:10684   */\n      add\n        /* \"#utility.yul\":10658:10664   */\n      dup5\n        /* \"#utility.yul\":10614:10685   */\n      tag_174\n      jump\t// in\n    tag_319:\n        /* \"#utility.yul\":10470:10692   */\n      swap3\n      swap2\n      pop\n      pop\n      jump\t// out\n        /* \"#utility.yul\":10698:11140   */\n    tag_53:\n        /* \"#utility.yul\":10847:10851   */\n      0x00\n        /* \"#utility.yul\":10885:10887   */\n      0x60\n        /* \"#utility.yul\":10874:10883   */\n      dup3\n        /* \"#utility.yul\":10870:10888   */\n      add\n        /* \"#utility.yul\":10862:10888   */\n      swap1\n      pop\n        /* \"#utility.yul\":10898:10969   */\n      tag_321\n        /* \"#utility.yul\":10966:10967   */\n      0x00\n        /* \"#utility.yul\":10955:10964   */\n      dup4\n        /* \"#utility.yul\":10951:10968   */\n      add\n        /* \"#utility.yul\":10942:10948   */\n      dup7\n        /* \"#utility.yul\":10898:10969   */\n      tag_174\n      jump\t// in\n    tag_321:\n        /* \"#utility.yul\":10979:11051   */\n      tag_322\n        /* \"#utility.yul\":11047:11049   */\n      0x20\n        /* \"#utility.yul\":11036:11045   */\n      dup4\n        /* \"#utility.yul\":11032:11050   */\n      add\n        /* \"#utility.yul\":11023:11029   */\n      dup6\n        /* \"#utility.yul\":10979:11051   */\n      tag_173\n      jump\t// in\n    tag_322:\n        /* \"#utility.yul\":11061:11133   */\n      tag_323\n        /* \"#utility.yul\":11129:11131   */\n      0x40\n        /* \"#utility.yul\":11118:11127   */\n      dup4\n        /* \"#utility.yul\":11114:11132   */\n      add\n        /* \"#utility.yul\":11105:11111   */\n      dup5\n        /* \"#utility.yul\":11061:11133   */\n      tag_174\n      jump\t// in\n    tag_323:\n        /* \"#utility.yul\":10698:11140   */\n      swap5\n      swap4\n      pop\n      pop\n      pop\n      pop\n      jump\t// out\n        /* \"#utility.yul\":11146:11315   */\n    tag_175:\n        /* \"#utility.yul\":11230:11241   */\n      0x00\n        /* \"#utility.yul\":11264:11270   */\n      dup3\n        /* \"#utility.yul\":11259:11262   */\n      dup3\n        /* \"#utility.yul\":11252:11271   */\n      mstore\n        /* \"#utility.yul\":11304:11308   */\n      0x20\n        /* \"#utility.yul\":11299:11302   */\n      dup3\n        /* \"#utility.yul\":11295:11309   */\n      add\n        /* \"#utility.yul\":11280:11309   */\n      swap1\n      pop\n        /* \"#utility.yul\":11146:11315   */\n      swap3\n      swap2\n      pop\n      pop\n      jump\t// out\n        /* \"#utility.yul\":11321:11485   */\n    tag_176:\n        /* \"#utility.yul\":11461:11477   */\n      0x496e76616c6964207369676e6572000000000000000000000000000000000000\n        /* \"#utility.yul\":11457:11458   */\n      0x00\n        /* \"#utility.yul\":11449:11455   */\n      dup3\n        /* \"#utility.yul\":11445:11459   */\n      add\n        /* \"#utility.yul\":11438:11478   */\n      mstore\n        /* \"#utility.yul\":11321:11485   */\n      pop\n      jump\t// out\n        /* \"#utility.yul\":11491:11857   */\n    tag_177:\n        /* \"#utility.yul\":11633:11636   */\n      0x00\n        /* \"#utility.yul\":11654:11721   */\n      tag_327\n        /* \"#utility.yul\":11718:11720   */\n      0x0e\n        /* \"#utility.yul\":11713:11716   */\n      dup4\n        /* \"#utility.yul\":11654:11721   */\n      tag_175\n      jump\t// in\n    tag_327:\n        /* \"#utility.yul\":11647:11721   */\n      swap2\n      pop\n        /* \"#utility.yul\":11730:11823   */\n      tag_328\n        /* \"#utility.yul\":11819:11822   */\n      dup3\n        /* \"#utility.yul\":11730:11823   */\n      tag_176\n      jump\t// in\n    tag_328:\n        /* \"#utility.yul\":11848:11850   */\n      0x20\n        /* \"#utility.yul\":11843:11846   */\n      dup3\n        /* \"#utility.yul\":11839:11851   */\n      add\n        /* \"#utility.yul\":11832:11851   */\n      swap1\n      pop\n        /* \"#utility.yul\":11491:11857   */\n      swap2\n      swap1\n      pop\n      jump\t// out\n        /* \"#utility.yul\":11863:12282   */\n    tag_67:\n        /* \"#utility.yul\":12029:12033   */\n      0x00\n        /* \"#utility.yul\":12067:12069   */\n      0x20\n        /* \"#utility.yul\":12056:12065   */\n      dup3\n        /* \"#utility.yul\":12052:12070   */\n      add\n        /* \"#utility.yul\":12044:12070   */\n      swap1\n      pop\n        /* \"#utility.yul\":12116:12125   */\n      dup2\n        /* \"#utility.yul\":12110:12114   */\n      dup2\n        /* \"#utility.yul\":12106:12126   */\n      sub\n        /* \"#utility.yul\":12102:12103   */\n      0x00\n        /* \"#utility.yul\":12091:12100   */\n      dup4\n        /* \"#utility.yul\":12087:12104   */\n      add\n        /* \"#utility.yul\":12080:12127   */\n      mstore\n        /* \"#utility.yul\":12144:12275   */\n      tag_330\n        /* \"#utility.yul\":12270:12274   */\n      dup2\n        /* \"#utility.yul\":12144:12275   */\n      tag_177\n      jump\t// in\n    tag_330:\n        /* \"#utility.yul\":12136:12275   */\n      swap1\n      pop\n        /* \"#utility.yul\":11863:12282   */\n      swap2\n      swap1\n      pop\n      jump\t// out\n        /* \"#utility.yul\":12288:12509   */\n    tag_178:\n        /* \"#utility.yul\":12428:12462   */\n      0x4f6e6c792063616c6c206f7065726174696f6e732061726520737570706f7274\n        /* \"#utility.yul\":12424:12425   */\n      0x00\n        /* \"#utility.yul\":12416:12422   */\n      dup3\n        /* \"#utility.yul\":12412:12426   */\n      add\n        /* \"#utility.yul\":12405:12463   */\n      mstore\n        /* \"#utility.yul\":12497:12501   */\n      0x6564000000000000000000000000000000000000000000000000000000000000\n        /* \"#utility.yul\":12492:12494   */\n      0x20\n        /* \"#utility.yul\":12484:12490   */\n      dup3\n        /* \"#utility.yul\":12480:12495   */\n      add\n        /* \"#utility.yul\":12473:12502   */\n      mstore\n        /* \"#utility.yul\":12288:12509   */\n      pop\n      jump\t// out\n        /* \"#utility.yul\":12515:12881   */\n    tag_179:\n        /* \"#utility.yul\":12657:12660   */\n      0x00\n        /* \"#utility.yul\":12678:12745   */\n      tag_333\n        /* \"#utility.yul\":12742:12744   */\n      0x22\n        /* \"#utility.yul\":12737:12740   */\n      dup4\n        /* \"#utility.yul\":12678:12745   */\n      tag_175\n      jump\t// in\n    tag_333:\n        /* \"#utility.yul\":12671:12745   */\n      swap2\n      pop\n        /* \"#utility.yul\":12754:12847   */\n      tag_334\n        /* \"#utility.yul\":12843:12846   */\n      dup3\n        /* \"#utility.yul\":12754:12847   */\n      tag_178\n      jump\t// in\n    tag_334:\n        /* \"#utility.yul\":12872:12874   */\n      0x40\n        /* \"#utility.yul\":12867:12870   */\n      dup3\n        /* \"#utility.yul\":12863:12875   */\n      add\n        /* \"#utility.yul\":12856:12875   */\n      swap1\n      pop\n        /* \"#utility.yul\":12515:12881   */\n      swap2\n      swap1\n      pop\n      jump\t// out\n        /* \"#utility.yul\":12887:13306   */\n    tag_70:\n        /* \"#utility.yul\":13053:13057   */\n      0x00\n        /* \"#utility.yul\":13091:13093   */\n      0x20\n        /* \"#utility.yul\":13080:13089   */\n      dup3\n        /* \"#utility.yul\":13076:13094   */\n      add\n        /* \"#utility.yul\":13068:13094   */\n      swap1\n      pop\n        /* \"#utility.yul\":13140:13149   */\n      dup2\n        /* \"#utility.yul\":13134:13138   */\n      dup2\n        /* \"#utility.yul\":13130:13150   */\n      sub\n        /* \"#utility.yul\":13126:13127   */\n      0x00\n        /* \"#utility.yul\":13115:13124   */\n      dup4\n        /* \"#utility.yul\":13111:13128   */\n      add\n        /* \"#utility.yul\":13104:13151   */\n      mstore\n        /* \"#utility.yul\":13168:13299   */\n      tag_336\n        /* \"#utility.yul\":13294:13298   */\n      dup2\n        /* \"#utility.yul\":13168:13299   */\n      tag_179\n      jump\t// in\n    tag_336:\n        /* \"#utility.yul\":13160:13299   */\n      swap1\n      pop\n        /* \"#utility.yul\":12887:13306   */\n      swap2\n      swap1\n      pop\n      jump\t// out\n        /* \"#utility.yul\":13312:13492   */\n    tag_180:\n        /* \"#utility.yul\":13360:13437   */\n      0x4e487b7100000000000000000000000000000000000000000000000000000000\n        /* \"#utility.yul\":13357:13358   */\n      0x00\n        /* \"#utility.yul\":13350:13438   */\n      mstore\n        /* \"#utility.yul\":13457:13461   */\n      0x11\n        /* \"#utility.yul\":13454:13455   */\n      0x04\n        /* \"#utility.yul\":13447:13462   */\n      mstore\n        /* \"#utility.yul\":13481:13485   */\n      0x24\n        /* \"#utility.yul\":13478:13479   */\n      0x00\n        /* \"#utility.yul\":13471:13486   */\n      revert\n        /* \"#utility.yul\":13498:13731   */\n    tag_72:\n        /* \"#utility.yul\":13537:13540   */\n      0x00\n        /* \"#utility.yul\":13560:13584   */\n      tag_339\n        /* \"#utility.yul\":13578:13583   */\n      dup3\n        /* \"#utility.yul\":13560:13584   */\n      tag_160\n      jump\t// in\n    tag_339:\n        /* \"#utility.yul\":13551:13584   */\n      swap2\n      pop\n        /* \"#utility.yul\":13606:13672   */\n      0xffffffffffffffffffffffffffffffffffffffffffffffffffffffffffffffff\n        /* \"#utility.yul\":13599:13604   */\n      dup3\n        /* \"#utility.yul\":13596:13673   */\n      sub\n        /* \"#utility.yul\":13593:13696   */\n      tag_340\n      jumpi\n        /* \"#utility.yul\":13676:13694   */\n      tag_341\n      tag_180\n      jump\t// in\n    tag_341:\n        /* \"#utility.yul\":13593:13696   */\n    tag_340:\n        /* \"#utility.yul\":13723:13724   */\n      0x01\n        /* \"#utility.yul\":13716:13721   */\n      dup3\n        /* \"#utility.yul\":13712:13725   */\n      add\n        /* \"#utility.yul\":13705:13725   */\n      swap1\n      pop\n        /* \"#utility.yul\":13498:13731   */\n      swap2\n      swap1\n      pop\n      jump\t// out\n        /* \"#utility.yul\":13737:13884   */\n    tag_181:\n        /* \"#utility.yul\":13838:13849   */\n      0x00\n        /* \"#utility.yul\":13875:13878   */\n      dup2\n        /* \"#utility.yul\":13860:13878   */\n      swap1\n      pop\n        /* \"#utility.yul\":13737:13884   */\n      swap3\n      swap2\n      pop\n      pop\n      jump\t// out\n        /* \"#utility.yul\":13912:14239   */\n    tag_182:\n        /* \"#utility.yul\":14026:14029   */\n      0x00\n        /* \"#utility.yul\":14047:14135   */\n      tag_344\n        /* \"#utility.yul\":14128:14134   */\n      dup4\n        /* \"#utility.yul\":14123:14126   */\n      dup6\n        /* \"#utility.yul\":14047:14135   */\n      tag_181\n      jump\t// in\n    tag_344:\n        /* \"#utility.yul\":14040:14135   */\n      swap4\n      pop\n        /* \"#utility.yul\":14145:14201   */\n      tag_345\n        /* \"#utility.yul\":14194:14200   */\n      dup4\n        /* \"#utility.yul\":14189:14192   */\n      dup6\n        /* \"#utility.yul\":14182:14187   */\n      dup5\n        /* \"#utility.yul\":14145:14201   */\n      tag_152\n      jump\t// in\n    tag_345:\n        /* \"#utility.yul\":14226:14232   */\n      dup3\n        /* \"#utility.yul\":14221:14224   */\n      dup5\n        /* \"#utility.yul\":14217:14233   */\n      add\n        /* \"#utility.yul\":14210:14233   */\n      swap1\n      pop\n        /* \"#utility.yul\":13912:14239   */\n      swap4\n      swap3\n      pop\n      pop\n      pop\n      jump\t// out\n        /* \"#utility.yul\":14245:14536   */\n    tag_74:\n        /* \"#utility.yul\":14385:14388   */\n      0x00\n        /* \"#utility.yul\":14407:14510   */\n      tag_347\n        /* \"#utility.yul\":14506:14509   */\n      dup3\n        /* \"#utility.yul\":14497:14503   */\n      dup5\n        /* \"#utility.yul\":14489:14495   */\n      dup7\n        /* \"#utility.yul\":14407:14510   */\n      tag_182\n      jump\t// in\n    tag_347:\n        /* \"#utility.yul\":14400:14510   */\n      swap2\n      pop\n        /* \"#utility.yul\":14527:14530   */\n      dup2\n        /* \"#utility.yul\":14520:14530   */\n      swap1\n      pop\n        /* \"#utility.yul\":14245:14536   */\n      swap4\n      swap3\n      pop\n      pop\n      pop\n      jump\t// out\n        /* \"#utility.yul\":14542:14685   */\n    tag_183:\n        /* \"#utility.yul\":14599:14604   */\n      0x00\n        /* \"#utility.yul\":14630:14636   */\n      dup2\n        /* \"#utility.yul\":14624:14637   */\n      mload\n        /* \"#utility.yul\":14615:14637   */\n      swap1\n      pop\n        /* \"#utility.yul\":14646:14679   */\n      tag_349\n        /* \"#utility.yul\":14673:14678   */\n      dup2\n        /* \"#utility.yul\":14646:14679   */\n      tag_158\n      jump\t// in\n    tag_349:\n        /* \"#utility.yul\":14542:14685   */\n      swap3\n      swap2\n      pop\n      pop\n      jump\t// out\n        /* \"#utility.yul\":14691:15042   */\n    tag_89:\n        /* \"#utility.yul\":14761:14767   */\n      0x00\n        /* \"#utility.yul\":14810:14812   */\n      0x20\n        /* \"#utility.yul\":14798:14807   */\n      dup3\n        /* \"#utility.yul\":14789:14796   */\n      dup5\n        /* \"#utility.yul\":14785:14808   */\n      sub\n        /* \"#utility.yul\":14781:14813   */\n      slt\n        /* \"#utility.yul\":14778:14897   */\n      iszero\n      tag_351\n      jumpi\n        /* \"#utility.yul\":14816:14895   */\n      tag_352\n      tag_136\n      jump\t// in\n    tag_352:\n        /* \"#utility.yul\":14778:14897   */\n    tag_351:\n        /* \"#utility.yul\":14936:14937   */\n      0x00\n        /* \"#utility.yul\":14961:15025   */\n      tag_353\n        /* \"#utility.yul\":15017:15024   */\n      dup5\n        /* \"#utility.yul\":15008:15014   */\n      dup3\n        /* \"#utility.yul\":14997:15006   */\n      dup6\n        /* \"#utility.yul\":14993:15015   */\n      add\n        /* \"#utility.yul\":14961:15025   */\n      tag_183\n      jump\t// in\n    tag_353:\n        /* \"#utility.yul\":14951:15025   */\n      swap2\n      pop\n        /* \"#utility.yul\":14907:15035   */\n      pop\n        /* \"#utility.yul\":14691:15042   */\n      swap3\n      swap2\n      pop\n      pop\n      jump\t// out\n        /* \"#utility.yul\":15048:15191   */\n    tag_184:\n        /* \"#utility.yul\":15105:15110   */\n      0x00\n        /* \"#utility.yul\":15136:15142   */\n      dup2\n        /* \"#utility.yul\":15130:15143   */\n      mload\n        /* \"#utility.yul\":15121:15143   */\n      swap1\n      pop\n        /* \"#utility.yul\":15152:15185   */\n      tag_355\n        /* \"#utility.yul\":15179:15184   */\n      dup2\n        /* \"#utility.yul\":15152:15185   */\n      tag_161\n      jump\t// in\n    tag_355:\n        /* \"#utility.yul\":15048:15191   */\n      swap3\n      swap2\n      pop\n      pop\n      jump\t// out\n        /* \"#utility.yul\":15197:15301   */\n    tag_185:\n        /* \"#utility.yul\":15242:15249   */\n      0x00\n        /* \"#utility.yul\":15271:15295   */\n      tag_357\n        /* \"#utility.yul\":15289:15294   */\n      dup3\n        /* \"#utility.yul\":15271:15295   */\n      tag_156\n      jump\t// in\n    tag_357:\n        /* \"#utility.yul\":15260:15295   */\n      swap1\n      pop\n        /* \"#utility.yul\":15197:15301   */\n      swap2\n      swap1\n      pop\n      jump\t// out\n        /* \"#utility.yul\":15307:15445   */\n    tag_186:\n        /* \"#utility.yul\":15388:15420   */\n      tag_359\n        /* \"#utility.yul\":15414:15419   */\n      dup2\n        /* \"#utility.yul\":15388:15420   */\n      tag_185\n      jump\t// in\n    tag_359:\n        /* \"#utility.yul\":15381:15386   */\n      dup2\n        /* \"#utility.yul\":15378:15421   */\n      eq\n        /* \"#utility.yul\":15368:15439   */\n      tag_360\n      jumpi\n        /* \"#utility.yul\":15435:15436   */\n      0x00\n        /* \"#utility.yul\":15432:15433   */\n      dup1\n        /* \"#utility.yul\":15425:15437   */\n      revert\n        /* \"#utility.yul\":15368:15439   */\n    tag_360:\n        /* \"#utility.yul\":15307:15445   */\n      pop\n      jump\t// out\n        /* \"#utility.yul\":15451:15610   */\n    tag_187:\n        /* \"#utility.yul\":15516:15521   */\n      0x00\n        /* \"#utility.yul\":15547:15553   */\n      dup2\n        /* \"#utility.yul\":15541:15554   */\n      mload\n        /* \"#utility.yul\":15532:15554   */\n      swap1\n      pop\n        /* \"#utility.yul\":15563:15604   */\n      tag_362\n        /* \"#utility.yul\":15598:15603   */\n      dup2\n        /* \"#utility.yul\":15563:15604   */\n      tag_186\n      jump\t// in\n    tag_362:\n        /* \"#utility.yul\":15451:15610   */\n      swap3\n      swap2\n      pop\n      pop\n      jump\t// out\n        /* \"#utility.yul\":15616:16295   */\n    tag_96:\n        /* \"#utility.yul\":15712:15718   */\n      0x00\n        /* \"#utility.yul\":15720:15726   */\n      dup1\n        /* \"#utility.yul\":15728:15734   */\n      0x00\n        /* \"#utility.yul\":15777:15779   */\n      0x60\n        /* \"#utility.yul\":15765:15774   */\n      dup5\n        /* \"#utility.yul\":15756:15763   */\n      dup7\n        /* \"#utility.yul\":15752:15775   */\n      sub\n        /* \"#utility.yul\":15748:15780   */\n      slt\n        /* \"#utility.yul\":15745:15864   */\n      iszero\n      tag_364\n      jumpi\n        /* \"#utility.yul\":15783:15862   */\n      tag_365\n      tag_136\n      jump\t// in\n    tag_365:\n        /* \"#utility.yul\":15745:15864   */\n    tag_364:\n        /* \"#utility.yul\":15903:15904   */\n      0x00\n        /* \"#utility.yul\":15928:15992   */\n      tag_366\n        /* \"#utility.yul\":15984:15991   */\n      dup7\n        /* \"#utility.yul\":15975:15981   */\n      dup3\n        /* \"#utility.yul\":15964:15973   */\n      dup8\n        /* \"#utility.yul\":15960:15982   */\n      add\n        /* \"#utility.yul\":15928:15992   */\n      tag_184\n      jump\t// in\n    tag_366:\n        /* \"#utility.yul\":15918:15992   */\n      swap4\n      pop\n        /* \"#utility.yul\":15874:16002   */\n      pop\n        /* \"#utility.yul\":16041:16043   */\n      0x20\n        /* \"#utility.yul\":16067:16139   */\n      tag_367\n        /* \"#utility.yul\":16131:16138   */\n      dup7\n        /* \"#utility.yul\":16122:16128   */\n      dup3\n        /* \"#utility.yul\":16111:16120   */\n      dup8\n        /* \"#utility.yul\":16107:16129   */\n      add\n        /* \"#utility.yul\":16067:16139   */\n      tag_187\n      jump\t// in\n    tag_367:\n        /* \"#utility.yul\":16057:16139   */\n      swap3\n      pop\n        /* \"#utility.yul\":16012:16149   */\n      pop\n        /* \"#utility.yul\":16188:16190   */\n      0x40\n        /* \"#utility.yul\":16214:16278   */\n      tag_368\n        /* \"#utility.yul\":16270:16277   */\n      dup7\n        /* \"#utility.yul\":16261:16267   */\n      dup3\n        /* \"#utility.yul\":16250:16259   */\n      dup8\n        /* \"#utility.yul\":16246:16268   */\n      add\n        /* \"#utility.yul\":16214:16278   */\n      tag_184\n      jump\t// in\n    tag_368:\n        /* \"#utility.yul\":16204:16278   */\n      swap2\n      pop\n        /* \"#utility.yul\":16159:16288   */\n      pop\n        /* \"#utility.yul\":15616:16295   */\n      swap3\n      pop\n      swap3\n      pop\n      swap3\n      jump\t// out\n        /* \"#utility.yul\":16301:16481   */\n    tag_102:\n        /* \"#utility.yul\":16349:16426   */\n      0x4e487b7100000000000000000000000000000000000000000000000000000000\n        /* \"#utility.yul\":16346:16347   */\n      0x00\n        /* \"#utility.yul\":16339:16427   */\n      mstore\n        /* \"#utility.yul\":16446:16450   */\n      0x21\n        /* \"#utility.yul\":16443:16444   */\n      0x04\n        /* \"#utility.yul\":16436:16451   */\n      mstore\n        /* \"#utility.yul\":16470:16474   */\n      0x24\n        /* \"#utility.yul\":16467:16468   */\n      0x00\n        /* \"#utility.yul\":16460:16475   */\n      revert\n        /* \"#utility.yul\":16487:16605   */\n    tag_188:\n        /* \"#utility.yul\":16574:16598   */\n      tag_371\n        /* \"#utility.yul\":16592:16597   */\n      dup2\n        /* \"#utility.yul\":16574:16598   */\n      tag_143\n      jump\t// in\n    tag_371:\n        /* \"#utility.yul\":16569:16572   */\n      dup3\n        /* \"#utility.yul\":16562:16599   */\n      mstore\n        /* \"#utility.yul\":16487:16605   */\n      pop\n      pop\n      jump\t// out\n        /* \"#utility.yul\":16611:17030   */\n    tag_118:\n        /* \"#utility.yul\":16750:16754   */\n      0x00\n        /* \"#utility.yul\":16788:16790   */\n      0x40\n        /* \"#utility.yul\":16777:16786   */\n      dup3\n        /* \"#utility.yul\":16773:16791   */\n      add\n        /* \"#utility.yul\":16765:16791   */\n      swap1\n      pop\n        /* \"#utility.yul\":16801:16872   */\n      tag_373\n        /* \"#utility.yul\":16869:16870   */\n      0x00\n        /* \"#utility.yul\":16858:16867   */\n      dup4\n        /* \"#utility.yul\":16854:16871   */\n      add\n        /* \"#utility.yul\":16845:16851   */\n      dup6\n        /* \"#utility.yul\":16801:16872   */\n      tag_188\n      jump\t// in\n    tag_373:\n        /* \"#utility.yul\":16919:16928   */\n      dup2\n        /* \"#utility.yul\":16913:16917   */\n      dup2\n        /* \"#utility.yul\":16909:16929   */\n      sub\n        /* \"#utility.yul\":16904:16906   */\n      0x20\n        /* \"#utility.yul\":16893:16902   */\n      dup4\n        /* \"#utility.yul\":16889:16907   */\n      add\n        /* \"#utility.yul\":16882:16930   */\n      mstore\n        /* \"#utility.yul\":16947:17023   */\n      tag_374\n        /* \"#utility.yul\":17018:17022   */\n      dup2\n        /* \"#utility.yul\":17009:17015   */\n      dup5\n        /* \"#utility.yul\":16947:17023   */\n      tag_172\n      jump\t// in\n    tag_374:\n        /* \"#utility.yul\":16939:17023   */\n      swap1\n      pop\n        /* \"#utility.yul\":16611:17030   */\n      swap4\n      swap3\n      pop\n      pop\n      pop\n      jump\t// out\n        /* \"#utility.yul\":17036:17422   */\n    tag_189:\n        /* \"#utility.yul\":17140:17143   */\n      0x00\n        /* \"#utility.yul\":17168:17206   */\n      tag_376\n        /* \"#utility.yul\":17200:17205   */\n      dup3\n        /* \"#utility.yul\":17168:17206   */\n      tag_169\n      jump\t// in\n    tag_376:\n        /* \"#utility.yul\":17222:17310   */\n      tag_377\n        /* \"#utility.yul\":17303:17309   */\n      dup2\n        /* \"#utility.yul\":17298:17301   */\n      dup6\n        /* \"#utility.yul\":17222:17310   */\n      tag_181\n      jump\t// in\n    tag_377:\n        /* \"#utility.yul\":17215:17310   */\n      swap4\n      pop\n        /* \"#utility.yul\":17319:17384   */\n      tag_378\n        /* \"#utility.yul\":17377:17383   */\n      dup2\n        /* \"#utility.yul\":17372:17375   */\n      dup6\n        /* \"#utility.yul\":17365:17369   */\n      0x20\n        /* \"#utility.yul\":17358:17363   */\n      dup7\n        /* \"#utility.yul\":17354:17370   */\n      add\n        /* \"#utility.yul\":17319:17384   */\n      tag_171\n      jump\t// in\n    tag_378:\n        /* \"#utility.yul\":17409:17415   */\n      dup1\n        /* \"#utility.yul\":17404:17407   */\n      dup5\n        /* \"#utility.yul\":17400:17416   */\n      add\n        /* \"#utility.yul\":17393:17416   */\n      swap2\n      pop\n        /* \"#utility.yul\":17144:17422   */\n      pop\n        /* \"#utility.yul\":17036:17422   */\n      swap3\n      swap2\n      pop\n      pop\n      jump\t// out\n        /* \"#utility.yul\":17428:17699   */\n    tag_120:\n        /* \"#utility.yul\":17558:17561   */\n      0x00\n        /* \"#utility.yul\":17580:17673   */\n      tag_380\n        /* \"#utility.yul\":17669:17672   */\n      dup3\n        /* \"#utility.yul\":17660:17666   */\n      dup5\n        /* \"#utility.yul\":17580:17673   */\n      tag_189\n      jump\t// in\n    tag_380:\n        /* \"#utility.yul\":17573:17673   */\n      swap2\n      pop\n        /* \"#utility.yul\":17690:17693   */\n      dup2\n        /* \"#utility.yul\":17683:17693   */\n      swap1\n      pop\n        /* \"#utility.yul\":17428:17699   */\n      swap3\n      swap2\n      pop\n      pop\n      jump\t// out\n        /* \"#utility.yul\":17705:17848   */\n    tag_190:\n        /* \"#utility.yul\":17762:17767   */\n      0x00\n        /* \"#utility.yul\":17793:17799   */\n      dup2\n        /* \"#utility.yul\":17787:17800   */\n      mload\n        /* \"#utility.yul\":17778:17800   */\n      swap1\n      pop\n        /* \"#utility.yul\":17809:17842   */\n      tag_382\n        /* \"#utility.yul\":17836:17841   */\n      dup2\n        /* \"#utility.yul\":17809:17842   */\n      tag_144\n      jump\t// in\n    tag_382:\n        /* \"#utility.yul\":17705:17848   */\n      swap3\n      swap2\n      pop\n      pop\n      jump\t// out\n        /* \"#utility.yul\":17854:18205   */\n    tag_127:\n        /* \"#utility.yul\":17924:17930   */\n      0x00\n        /* \"#utility.yul\":17973:17975   */\n      0x20\n        /* \"#utility.yul\":17961:17970   */\n      dup3\n        /* \"#utility.yul\":17952:17959   */\n      dup5\n        /* \"#utility.yul\":17948:17971   */\n      sub\n        /* \"#utility.yul\":17944:17976   */\n      slt\n        /* \"#utility.yul\":17941:18060   */\n      iszero\n      tag_384\n      jumpi\n        /* \"#utility.yul\":17979:18058   */\n      tag_385\n      tag_136\n      jump\t// in\n    tag_385:\n        /* \"#utility.yul\":17941:18060   */\n    tag_384:\n        /* \"#utility.yul\":18099:18100   */\n      0x00\n        /* \"#utility.yul\":18124:18188   */\n      tag_386\n        /* \"#utility.yul\":18180:18187   */\n      dup5\n        /* \"#utility.yul\":18171:18177   */\n      dup3\n        /* \"#utility.yul\":18160:18169   */\n      dup6\n        /* \"#utility.yul\":18156:18178   */\n      add\n        /* \"#utility.yul\":18124:18188   */\n      tag_190\n      jump\t// in\n    tag_386:\n        /* \"#utility.yul\":18114:18188   */\n      swap2\n      pop\n        /* \"#utility.yul\":18070:18198   */\n      pop\n        /* \"#utility.yul\":17854:18205   */\n      swap3\n      swap2\n      pop\n      pop\n      jump\t// out\n        /* \"#utility.yul\":18211:18323   */\n    tag_191:\n        /* \"#utility.yul\":18294:18316   */\n      tag_388\n        /* \"#utility.yul\":18310:18315   */\n      dup2\n        /* \"#utility.yul\":18294:18316   */\n      tag_166\n      jump\t// in\n    tag_388:\n        /* \"#utility.yul\":18289:18292   */\n      dup3\n        /* \"#utility.yul\":18282:18317   */\n      mstore\n        /* \"#utility.yul\":18211:18323   */\n      pop\n      pop\n      jump\t// out\n        /* \"#utility.yul\":18329:18874   */\n    tag_131:\n        /* \"#utility.yul\":18502:18506   */\n      0x00\n        /* \"#utility.yul\":18540:18543   */\n      0x80\n        /* \"#utility.yul\":18529:18538   */\n      dup3\n        /* \"#utility.yul\":18525:18544   */\n      add\n        /* \"#utility.yul\":18517:18544   */\n      swap1\n      pop\n        /* \"#utility.yul\":18554:18625   */\n      tag_390\n        /* \"#utility.yul\":18622:18623   */\n      0x00\n        /* \"#utility.yul\":18611:18620   */\n      dup4\n        /* \"#utility.yul\":18607:18624   */\n      add\n        /* \"#utility.yul\":18598:18604   */\n      dup8\n        /* \"#utility.yul\":18554:18625   */\n      tag_188\n      jump\t// in\n    tag_390:\n        /* \"#utility.yul\":18635:18703   */\n      tag_391\n        /* \"#utility.yul\":18699:18701   */\n      0x20\n        /* \"#utility.yul\":18688:18697   */\n      dup4\n        /* \"#utility.yul\":18684:18702   */\n      add\n        /* \"#utility.yul\":18675:18681   */\n      dup7\n        /* \"#utility.yul\":18635:18703   */\n      tag_191\n      jump\t// in\n    tag_391:\n        /* \"#utility.yul\":18713:18785   */\n      tag_392\n        /* \"#utility.yul\":18781:18783   */\n      0x40\n        /* \"#utility.yul\":18770:18779   */\n      dup4\n        /* \"#utility.yul\":18766:18784   */\n      add\n        /* \"#utility.yul\":18757:18763   */\n      dup6\n        /* \"#utility.yul\":18713:18785   */\n      tag_188\n      jump\t// in\n    tag_392:\n        /* \"#utility.yul\":18795:18867   */\n      tag_393\n        /* \"#utility.yul\":18863:18865   */\n      0x60\n        /* \"#utility.yul\":18852:18861   */\n      dup4\n        /* \"#utility.yul\":18848:18866   */\n      add\n        /* \"#utility.yul\":18839:18845   */\n      dup5\n        /* \"#utility.yul\":18795:18867   */\n      tag_188\n      jump\t// in\n    tag_393:\n        /* \"#utility.yul\":18329:18874   */\n      swap6\n      swap5\n      pop\n      pop\n      pop\n      pop\n      pop\n      jump\t// out\n\n    auxdata: 0xa264697066735822122010767256e9f6d032a5c89dbb2ddac2fe16178be31b65704267564bb3131c98f264736f6c63430008170033\n}\n",
				"bytecode": {
					"linkReferences": {},
					"object": "608060405234801561000f575f80fd5b506112e48061001d5f395ff3fe608060405260043610610073575f3560e01c8063523e32601161004d578063523e3260146101265780638da5cb5b14610162578063c19d93fb1461018c578063fc0c546a146101b65761007a565b806301ffc9a71461007e5780631626ba7e146100ba57806351945447146100f65761007a565b3661007a57005b5f80fd5b348015610089575f80fd5b506100a4600480360381019061009f9190610960565b6101e2565b6040516100b191906109a5565b60405180910390f35b3480156100c5575f80fd5b506100e060048036038101906100db9190610b2d565b61031b565b6040516100ed9190610b96565b60405180910390f35b610110600480360381019061010b9190610ccf565b610355565b60405161011d9190610dcd565b60405180910390f35b348015610131575f80fd5b5061014c60048036038101906101479190610ded565b610480565b6040516101599190610b96565b60405180910390f35b34801561016d575f80fd5b506101766104ac565b6040516101839190610e59565b60405180910390f35b348015610197575f80fd5b506101a0610551565b6040516101ad9190610e81565b60405180910390f35b3480156101c1575f80fd5b506101ca610556565b6040516101d993929190610e9a565b60405180910390f35b5f7f01ffc9a7000000000000000000000000000000000000000000000000000000007bffffffffffffffffffffffffffffffffffffffffffffffffffffffff1916827bffffffffffffffffffffffffffffffffffffffffffffffffffffffff191614806102ac57507f6faff5f1000000000000000000000000000000000000000000000000000000007bffffffffffffffffffffffffffffffffffffffffffffffffffffffff1916827bffffffffffffffffffffffffffffffffffffffffffffffffffffffff1916145b8061031457507f51945447000000000000000000000000000000000000000000000000000000007bffffffffffffffffffffffffffffffffffffffffffffffffffffffff1916827bffffffffffffffffffffffffffffffffffffffffffffffffffffffff1916145b9050919050565b5f8061032f6103286104ac565b85856105d4565b9050801561034757631626ba7e60e01b91505061034f565b5f60e01b9150505b92915050565b606061036033610661565b61039f576040517f08c379a000000000000000000000000000000000000000000000000000000000815260040161039690610f29565b60405180910390fd5b5f8260ff16146103e4576040517f08c379a00000000000000000000000000000000000000000000000000000000081526004016103db90610fb7565b60405180910390fd5b5f8081546103f190611002565b919050819055505f8673ffffffffffffffffffffffffffffffffffffffff16868686604051610421929190611077565b5f6040518083038185875af1925050503d805f811461045b576040519150601f19603f3d011682016040523d82523d5f602084013e610460565b606091505b5080935081925050508061047657815160208301fd5b5095945050505050565b5f61048a84610661565b1561049e5763523e326060e01b90506104a5565b5f60e01b90505b9392505050565b5f805f806104b8610556565b9250925092504683146104d0575f935050505061054e565b8173ffffffffffffffffffffffffffffffffffffffff16636352211e826040518263ffffffff1660e01b81526004016105099190610e81565b602060405180830381865afa158015610524573d5f803e3d5ffd5b505050506040513d601f19601f8201168201806040525081019061054891906110a3565b93505050505b90565b5f5481565b5f805f80606067ffffffffffffffff81111561057557610574610a09565b5b6040519080825280601f01601f1916602001820160405280156105a75781602001600182028036833780820191505090505b5090506060604d60208301303c808060200190518101906105c8919061111d565b93509350935050909192565b5f805f6105e1858561069f565b50915091505f60038111156105f9576105f861116d565b5b81600381111561060c5761060b61116d565b5b14801561064457508573ffffffffffffffffffffffffffffffffffffffff168273ffffffffffffffffffffffffffffffffffffffff16145b8061065657506106558686866106f4565b5b925050509392505050565b5f61066a6104ac565b73ffffffffffffffffffffffffffffffffffffffff168273ffffffffffffffffffffffffffffffffffffffff16149050919050565b5f805f60418451036106df575f805f602087015192506040870151915060608701515f1a90506106d188828585610813565b9550955095505050506106ed565b5f600285515f1b9250925092505b9250925092565b5f805f8573ffffffffffffffffffffffffffffffffffffffff1685856040516024016107219291906111a9565b604051602081830303815290604052631626ba7e60e01b6020820180517bffffffffffffffffffffffffffffffffffffffffffffffffffffffff83818316178352505050506040516107739190611207565b5f60405180830381855afa9150503d805f81146107ab576040519150601f19603f3d011682016040523d82523d5f602084013e6107b0565b606091505b50915091508180156107c457506020815110155b80156108085750631626ba7e60e01b7bffffffffffffffffffffffffffffffffffffffffffffffffffffffff1916818060200190518101906108069190611231565b145b925050509392505050565b5f805f7f7fffffffffffffffffffffffffffffff5d576e7357a4501ddfe92f46681b20a0845f1c111561084f575f6003859250925092506108f0565b5f6001888888886040515f8152602001604052604051610872949392919061126b565b6020604051602081039080840390855afa158015610892573d5f803e3d5ffd5b5050506020604051035190505f73ffffffffffffffffffffffffffffffffffffffff168173ffffffffffffffffffffffffffffffffffffffff16036108e3575f60015f801b935093509350506108f0565b805f805f1b935093509350505b9450945094915050565b5f604051905090565b5f80fd5b5f80fd5b5f7fffffffff0000000000000000000000000000000000000000000000000000000082169050919050565b61093f8161090b565b8114610949575f80fd5b50565b5f8135905061095a81610936565b92915050565b5f6020828403121561097557610974610903565b5b5f6109828482850161094c565b91505092915050565b5f8115159050919050565b61099f8161098b565b82525050565b5f6020820190506109b85f830184610996565b92915050565b5f819050919050565b6109d0816109be565b81146109da575f80fd5b50565b5f813590506109eb816109c7565b92915050565b5f80fd5b5f80fd5b5f601f19601f8301169050919050565b7f4e487b71000000000000000000000000000000000000000000000000000000005f52604160045260245ffd5b610a3f826109f9565b810181811067ffffffffffffffff82111715610a5e57610a5d610a09565b5b80604052505050565b5f610a706108fa565b9050610a7c8282610a36565b919050565b5f67ffffffffffffffff821115610a9b57610a9a610a09565b5b610aa4826109f9565b9050602081019050919050565b828183375f83830152505050565b5f610ad1610acc84610a81565b610a67565b905082815260208101848484011115610aed57610aec6109f5565b5b610af8848285610ab1565b509392505050565b5f82601f830112610b1457610b136109f1565b5b8135610b24848260208601610abf565b91505092915050565b5f8060408385031215610b4357610b42610903565b5b5f610b50858286016109dd565b925050602083013567ffffffffffffffff811115610b7157610b70610907565b5b610b7d85828601610b00565b9150509250929050565b610b908161090b565b82525050565b5f602082019050610ba95f830184610b87565b92915050565b5f73ffffffffffffffffffffffffffffffffffffffff82169050919050565b5f610bd882610baf565b9050919050565b610be881610bce565b8114610bf2575f80fd5b50565b5f81359050610c0381610bdf565b92915050565b5f819050919050565b610c1b81610c09565b8114610c25575f80fd5b50565b5f81359050610c3681610c12565b92915050565b5f80fd5b5f80fd5b5f8083601f840112610c5957610c586109f1565b5b8235905067ffffffffffffffff811115610c7657610c75610c3c565b5b602083019150836001820283011115610c9257610c91610c40565b5b9250929050565b5f60ff82169050919050565b610cae81610c99565b8114610cb8575f80fd5b50565b5f81359050610cc981610ca5565b92915050565b5f805f805f60808688031215610ce857610ce7610903565b5b5f610cf588828901610bf5565b9550506020610d0688828901610c28565b945050604086013567ffffffffffffffff811115610d2757610d26610907565b5b610d3388828901610c44565b93509350506060610d4688828901610cbb565b9150509295509295909350565b5f81519050919050565b5f82825260208201905092915050565b5f5b83811015610d8a578082015181840152602081019050610d6f565b5f8484015250505050565b5f610d9f82610d53565b610da98185610d5d565b9350610db9818560208601610d6d565b610dc2816109f9565b840191505092915050565b5f6020820190508181035f830152610de58184610d95565b905092915050565b5f805f60408486031215610e0457610e03610903565b5b5f610e1186828701610bf5565b935050602084013567ffffffffffffffff811115610e3257610e31610907565b5b610e3e86828701610c44565b92509250509250925092565b610e5381610bce565b82525050565b5f602082019050610e6c5f830184610e4a565b92915050565b610e7b81610c09565b82525050565b5f602082019050610e945f830184610e72565b92915050565b5f606082019050610ead5f830186610e72565b610eba6020830185610e4a565b610ec76040830184610e72565b949350505050565b5f82825260208201905092915050565b7f496e76616c6964207369676e65720000000000000000000000000000000000005f82015250565b5f610f13600e83610ecf565b9150610f1e82610edf565b602082019050919050565b5f6020820190508181035f830152610f4081610f07565b9050919050565b7f4f6e6c792063616c6c206f7065726174696f6e732061726520737570706f72745f8201527f6564000000000000000000000000000000000000000000000000000000000000602082015250565b5f610fa1602283610ecf565b9150610fac82610f47565b604082019050919050565b5f6020820190508181035f830152610fce81610f95565b9050919050565b7f4e487b71000000000000000000000000000000000000000000000000000000005f52601160045260245ffd5b5f61100c82610c09565b91507fffffffffffffffffffffffffffffffffffffffffffffffffffffffffffffffff820361103e5761103d610fd5565b5b600182019050919050565b5f81905092915050565b5f61105e8385611049565b935061106b838584610ab1565b82840190509392505050565b5f611083828486611053565b91508190509392505050565b5f8151905061109d81610bdf565b92915050565b5f602082840312156110b8576110b7610903565b5b5f6110c58482850161108f565b91505092915050565b5f815190506110dc81610c12565b92915050565b5f6110ec82610baf565b9050919050565b6110fc816110e2565b8114611106575f80fd5b50565b5f81519050611117816110f3565b92915050565b5f805f6060848603121561113457611133610903565b5b5f611141868287016110ce565b935050602061115286828701611109565b9250506040611163868287016110ce565b9150509250925092565b7f4e487b71000000000000000000000000000000000000000000000000000000005f52602160045260245ffd5b6111a3816109be565b82525050565b5f6040820190506111bc5f83018561119a565b81810360208301526111ce8184610d95565b90509392505050565b5f6111e182610d53565b6111eb8185611049565b93506111fb818560208601610d6d565b80840191505092915050565b5f61121282846111d7565b915081905092915050565b5f8151905061122b816109c7565b92915050565b5f6020828403121561124657611245610903565b5b5f6112538482850161121d565b91505092915050565b61126581610c99565b82525050565b5f60808201905061127e5f83018761119a565b61128b602083018661125c565b611298604083018561119a565b6112a5606083018461119a565b9594505050505056fea264697066735822122010767256e9f6d032a5c89dbb2ddac2fe16178be31b65704267564bb3131c98f264736f6c63430008170033",
					"opcodes": "PUSH1 0x80 PUSH1 0x40 MSTORE CALLVALUE DUP1 ISZERO PUSH2 0xF JUMPI PUSH0 DUP1 REVERT JUMPDEST POP PUSH2 0x12E4 DUP1 PUSH2 0x1D PUSH0 CODECOPY PUSH0 RETURN INVALID PUSH1 0x80 PUSH1 0x40 MSTORE PUSH1 0x4 CALLDATASIZE LT PUSH2 0x73 JUMPI PUSH0 CALLDATALOAD PUSH1 0xE0 SHR DUP1 PUSH4 0x523E3260 GT PUSH2 0x4D JUMPI DUP1 PUSH4 0x523E3260 EQ PUSH2 0x126 JUMPI DUP1 PUSH4 0x8DA5CB5B EQ PUSH2 0x162 JUMPI DUP1 PUSH4 0xC19D93FB EQ PUSH2 0x18C JUMPI DUP1 PUSH4 0xFC0C546A EQ PUSH2 0x1B6 JUMPI PUSH2 0x7A JUMP JUMPDEST DUP1 PUSH4 0x1FFC9A7 EQ PUSH2 0x7E JUMPI DUP1 PUSH4 0x1626BA7E EQ PUSH2 0xBA JUMPI DUP1 PUSH4 0x51945447 EQ PUSH2 0xF6 JUMPI PUSH2 0x7A JUMP JUMPDEST CALLDATASIZE PUSH2 0x7A JUMPI STOP JUMPDEST PUSH0 DUP1 REVERT JUMPDEST CALLVALUE DUP1 ISZERO PUSH2 0x89 JUMPI PUSH0 DUP1 REVERT JUMPDEST POP PUSH2 0xA4 PUSH1 0x4 DUP1 CALLDATASIZE SUB DUP2 ADD SWAP1 PUSH2 0x9F SWAP2 SWAP1 PUSH2 0x960 JUMP JUMPDEST PUSH2 0x1E2 JUMP JUMPDEST PUSH1 0x40 MLOAD PUSH2 0xB1 SWAP2 SWAP1 PUSH2 0x9A5 JUMP JUMPDEST PUSH1 0x40 MLOAD DUP1 SWAP2 SUB SWAP1 RETURN JUMPDEST CALLVALUE DUP1 ISZERO PUSH2 0xC5 JUMPI PUSH0 DUP1 REVERT JUMPDEST POP PUSH2 0xE0 PUSH1 0x4 DUP1 CALLDATASIZE SUB DUP2 ADD SWAP1 PUSH2 0xDB SWAP2 SWAP1 PUSH2 0xB2D JUMP JUMPDEST PUSH2 0x31B JUMP JUMPDEST PUSH1 0x40 MLOAD PUSH2 0xED SWAP2 SWAP1 PUSH2 0xB96 JUMP JUMPDEST PUSH1 0x40 MLOAD DUP1 SWAP2 SUB SWAP1 RETURN JUMPDEST PUSH2 0x110 PUSH1 0x4 DUP1 CALLDATASIZE SUB DUP2 ADD SWAP1 PUSH2 0x10B SWAP2 SWAP1 PUSH2 0xCCF JUMP JUMPDEST PUSH2 0x355 JUMP JUMPDEST PUSH1 0x40 MLOAD PUSH2 0x11D SWAP2 SWAP1 PUSH2 0xDCD JUMP JUMPDEST PUSH1 0x40 MLOAD DUP1 SWAP2 SUB SWAP1 RETURN JUMPDEST CALLVALUE DUP1 ISZERO PUSH2 0x131 JUMPI PUSH0 DUP1 REVERT JUMPDEST POP PUSH2 0x14C PUSH1 0x4 DUP1 CALLDATASIZE SUB DUP2 ADD SWAP1 PUSH2 0x147 SWAP2 SWAP1 PUSH2 0xDED JUMP JUMPDEST PUSH2 0x480 JUMP JUMPDEST PUSH1 0x40 MLOAD PUSH2 0x159 SWAP2 SWAP1 PUSH2 0xB96 JUMP JUMPDEST PUSH1 0x40 MLOAD DUP1 SWAP2 SUB SWAP1 RETURN JUMPDEST CALLVALUE DUP1 ISZERO PUSH2 0x16D JUMPI PUSH0 DUP1 REVERT JUMPDEST POP PUSH2 0x176 PUSH2 0x4AC JUMP JUMPDEST PUSH1 0x40 MLOAD PUSH2 0x183 SWAP2 SWAP1 PUSH2 0xE59 JUMP JUMPDEST PUSH1 0x40 MLOAD DUP1 SWAP2 SUB SWAP1 RETURN JUMPDEST CALLVALUE DUP1 ISZERO PUSH2 0x197 JUMPI PUSH0 DUP1 REVERT JUMPDEST POP PUSH2 0x1A0 PUSH2 0x551 JUMP JUMPDEST PUSH1 0x40 MLOAD PUSH2 0x1AD SWAP2 SWAP1 PUSH2 0xE81 JUMP JUMPDEST PUSH1 0x40 MLOAD DUP1 SWAP2 SUB SWAP1 RETURN JUMPDEST CALLVALUE DUP1 ISZERO PUSH2 0x1C1 JUMPI PUSH0 DUP1 REVERT JUMPDEST POP PUSH2 0x1CA PUSH2 0x556 JUMP JUMPDEST PUSH1 0x40 MLOAD PUSH2 0x1D9 SWAP4 SWAP3 SWAP2 SWAP1 PUSH2 0xE9A JUMP JUMPDEST PUSH1 0x40 MLOAD DUP1 SWAP2 SUB SWAP1 RETURN JUMPDEST PUSH0 PUSH32 0x1FFC9A700000000000000000000000000000000000000000000000000000000 PUSH28 0xFFFFFFFFFFFFFFFFFFFFFFFFFFFFFFFFFFFFFFFFFFFFFFFFFFFFFFFF NOT AND DUP3 PUSH28 0xFFFFFFFFFFFFFFFFFFFFFFFFFFFFFFFFFFFFFFFFFFFFFFFFFFFFFFFF NOT AND EQ DUP1 PUSH2 0x2AC JUMPI POP PUSH32 0x6FAFF5F100000000000000000000000000000000000000000000000000000000 PUSH28 0xFFFFFFFFFFFFFFFFFFFFFFFFFFFFFFFFFFFFFFFFFFFFFFFFFFFFFFFF NOT AND DUP3 PUSH28 0xFFFFFFFFFFFFFFFFFFFFFFFFFFFFFFFFFFFFFFFFFFFFFFFFFFFFFFFF NOT AND EQ JUMPDEST DUP1 PUSH2 0x314 JUMPI POP PUSH32 0x5194544700000000000000000000000000000000000000000000000000000000 PUSH28 0xFFFFFFFFFFFFFFFFFFFFFFFFFFFFFFFFFFFFFFFFFFFFFFFFFFFFFFFF NOT AND DUP3 PUSH28 0xFFFFFFFFFFFFFFFFFFFFFFFFFFFFFFFFFFFFFFFFFFFFFFFFFFFFFFFF NOT AND EQ JUMPDEST SWAP1 POP SWAP2 SWAP1 POP JUMP JUMPDEST PUSH0 DUP1 PUSH2 0x32F PUSH2 0x328 PUSH2 0x4AC JUMP JUMPDEST DUP6 DUP6 PUSH2 0x5D4 JUMP JUMPDEST SWAP1 POP DUP1 ISZERO PUSH2 0x347 JUMPI PUSH4 0x1626BA7E PUSH1 0xE0 SHL SWAP2 POP POP PUSH2 0x34F JUMP JUMPDEST PUSH0 PUSH1 0xE0 SHL SWAP2 POP POP JUMPDEST SWAP3 SWAP2 POP POP JUMP JUMPDEST PUSH1 0x60 PUSH2 0x360 CALLER PUSH2 0x661 JUMP JUMPDEST PUSH2 0x39F JUMPI PUSH1 0x40 MLOAD PUSH32 0x8C379A000000000000000000000000000000000000000000000000000000000 DUP2 MSTORE PUSH1 0x4 ADD PUSH2 0x396 SWAP1 PUSH2 0xF29 JUMP JUMPDEST PUSH1 0x40 MLOAD DUP1 SWAP2 SUB SWAP1 REVERT JUMPDEST PUSH0 DUP3 PUSH1 0xFF AND EQ PUSH2 0x3E4 JUMPI PUSH1 0x40 MLOAD PUSH32 0x8C379A000000000000000000000000000000000000000000000000000000000 DUP2 MSTORE PUSH1 0x4 ADD PUSH2 0x3DB SWAP1 PUSH2 0xFB7 JUMP JUMPDEST PUSH1 0x40 MLOAD DUP1 SWAP2 SUB SWAP1 REVERT JUMPDEST PUSH0 DUP1 DUP2 SLOAD PUSH2 0x3F1 SWAP1 PUSH2 0x1002 JUMP JUMPDEST SWAP2 SWAP1 POP DUP2 SWAP1 SSTORE POP PUSH0 DUP7 PUSH20 0xFFFFFFFFFFFFFFFFFFFFFFFFFFFFFFFFFFFFFFFF AND DUP7 DUP7 DUP7 PUSH1 0x40 MLOAD PUSH2 0x421 SWAP3 SWAP2 SWAP1 PUSH2 0x1077 JUMP JUMPDEST PUSH0 PUSH1 0x40 MLOAD DUP1 DUP4 SUB DUP2 DUP6 DUP8 GAS CALL SWAP3 POP POP POP RETURNDATASIZE DUP1 PUSH0 DUP2 EQ PUSH2 0x45B JUMPI PUSH1 0x40 MLOAD SWAP2 POP PUSH1 0x1F NOT PUSH1 0x3F RETURNDATASIZE ADD AND DUP3 ADD PUSH1 0x40 MSTORE RETURNDATASIZE DUP3 MSTORE RETURNDATASIZE PUSH0 PUSH1 0x20 DUP5 ADD RETURNDATACOPY PUSH2 0x460 JUMP JUMPDEST PUSH1 0x60 SWAP2 POP JUMPDEST POP DUP1 SWAP4 POP DUP2 SWAP3 POP POP POP DUP1 PUSH2 0x476 JUMPI DUP2 MLOAD PUSH1 0x20 DUP4 ADD REVERT JUMPDEST POP SWAP6 SWAP5 POP POP POP POP POP JUMP JUMPDEST PUSH0 PUSH2 0x48A DUP5 PUSH2 0x661 JUMP JUMPDEST ISZERO PUSH2 0x49E JUMPI PUSH4 0x523E3260 PUSH1 0xE0 SHL SWAP1 POP PUSH2 0x4A5 JUMP JUMPDEST PUSH0 PUSH1 0xE0 SHL SWAP1 POP JUMPDEST SWAP4 SWAP3 POP POP POP JUMP JUMPDEST PUSH0 DUP1 PUSH0 DUP1 PUSH2 0x4B8 PUSH2 0x556 JUMP JUMPDEST SWAP3 POP SWAP3 POP SWAP3 POP CHAINID DUP4 EQ PUSH2 0x4D0 JUMPI PUSH0 SWAP4 POP POP POP POP PUSH2 0x54E JUMP JUMPDEST DUP2 PUSH20 0xFFFFFFFFFFFFFFFFFFFFFFFFFFFFFFFFFFFFFFFF AND PUSH4 0x6352211E DUP3 PUSH1 0x40 MLOAD DUP3 PUSH4 0xFFFFFFFF AND PUSH1 0xE0 SHL DUP2 MSTORE PUSH1 0x4 ADD PUSH2 0x509 SWAP2 SWAP1 PUSH2 0xE81 JUMP JUMPDEST PUSH1 0x20 PUSH1 0x40 MLOAD DUP1 DUP4 SUB DUP2 DUP7 GAS STATICCALL ISZERO DUP1 ISZERO PUSH2 0x524 JUMPI RETURNDATASIZE PUSH0 DUP1 RETURNDATACOPY RETURNDATASIZE PUSH0 REVERT JUMPDEST POP POP POP POP PUSH1 0x40 MLOAD RETURNDATASIZE PUSH1 0x1F NOT PUSH1 0x1F DUP3 ADD AND DUP3 ADD DUP1 PUSH1 0x40 MSTORE POP DUP2 ADD SWAP1 PUSH2 0x548 SWAP2 SWAP1 PUSH2 0x10A3 JUMP JUMPDEST SWAP4 POP POP POP POP JUMPDEST SWAP1 JUMP JUMPDEST PUSH0 SLOAD DUP2 JUMP JUMPDEST PUSH0 DUP1 PUSH0 DUP1 PUSH1 0x60 PUSH8 0xFFFFFFFFFFFFFFFF DUP2 GT ISZERO PUSH2 0x575 JUMPI PUSH2 0x574 PUSH2 0xA09 JUMP JUMPDEST JUMPDEST PUSH1 0x40 MLOAD SWAP1 DUP1 DUP3 MSTORE DUP1 PUSH1 0x1F ADD PUSH1 0x1F NOT AND PUSH1 0x20 ADD DUP3 ADD PUSH1 0x40 MSTORE DUP1 ISZERO PUSH2 0x5A7 JUMPI DUP2 PUSH1 0x20 ADD PUSH1 0x1 DUP3 MUL DUP1 CALLDATASIZE DUP4 CALLDATACOPY DUP1 DUP3 ADD SWAP2 POP POP SWAP1 POP JUMPDEST POP SWAP1 POP PUSH1 0x60 PUSH1 0x4D PUSH1 0x20 DUP4 ADD ADDRESS EXTCODECOPY DUP1 DUP1 PUSH1 0x20 ADD SWAP1 MLOAD DUP2 ADD SWAP1 PUSH2 0x5C8 SWAP2 SWAP1 PUSH2 0x111D JUMP JUMPDEST SWAP4 POP SWAP4 POP SWAP4 POP POP SWAP1 SWAP2 SWAP3 JUMP JUMPDEST PUSH0 DUP1 PUSH0 PUSH2 0x5E1 DUP6 DUP6 PUSH2 0x69F JUMP JUMPDEST POP SWAP2 POP SWAP2 POP PUSH0 PUSH1 0x3 DUP2 GT ISZERO PUSH2 0x5F9 JUMPI PUSH2 0x5F8 PUSH2 0x116D JUMP JUMPDEST JUMPDEST DUP2 PUSH1 0x3 DUP2 GT ISZERO PUSH2 0x60C JUMPI PUSH2 0x60B PUSH2 0x116D JUMP JUMPDEST JUMPDEST EQ DUP1 ISZERO PUSH2 0x644 JUMPI POP DUP6 PUSH20 0xFFFFFFFFFFFFFFFFFFFFFFFFFFFFFFFFFFFFFFFF AND DUP3 PUSH20 0xFFFFFFFFFFFFFFFFFFFFFFFFFFFFFFFFFFFFFFFF AND EQ JUMPDEST DUP1 PUSH2 0x656 JUMPI POP PUSH2 0x655 DUP7 DUP7 DUP7 PUSH2 0x6F4 JUMP JUMPDEST JUMPDEST SWAP3 POP POP POP SWAP4 SWAP3 POP POP POP JUMP JUMPDEST PUSH0 PUSH2 0x66A PUSH2 0x4AC JUMP JUMPDEST PUSH20 0xFFFFFFFFFFFFFFFFFFFFFFFFFFFFFFFFFFFFFFFF AND DUP3 PUSH20 0xFFFFFFFFFFFFFFFFFFFFFFFFFFFFFFFFFFFFFFFF AND EQ SWAP1 POP SWAP2 SWAP1 POP JUMP JUMPDEST PUSH0 DUP1 PUSH0 PUSH1 0x41 DUP5 MLOAD SUB PUSH2 0x6DF JUMPI PUSH0 DUP1 PUSH0 PUSH1 0x20 DUP8 ADD MLOAD SWAP3 POP PUSH1 0x40 DUP8 ADD MLOAD SWAP2 POP PUSH1 0x60 DUP8 ADD MLOAD PUSH0 BYTE SWAP1 POP PUSH2 0x6D1 DUP9 DUP3 DUP6 DUP6 PUSH2 0x813 JUMP JUMPDEST SWAP6 POP SWAP6 POP SWAP6 POP POP POP POP PUSH2 0x6ED JUMP JUMPDEST PUSH0 PUSH1 0x2 DUP6 MLOAD PUSH0 SHL SWAP3 POP SWAP3 POP SWAP3 POP JUMPDEST SWAP3 POP SWAP3 POP SWAP3 JUMP JUMPDEST PUSH0 DUP1 PUSH0 DUP6 PUSH20 0xFFFFFFFFFFFFFFFFFFFFFFFFFFFFFFFFFFFFFFFF AND DUP6 DUP6 PUSH1 0x40 MLOAD PUSH1 0x24 ADD PUSH2 0x721 SWAP3 SWAP2 SWAP1 PUSH2 0x11A9 JUMP JUMPDEST PUSH1 0x40 MLOAD PUSH1 0x20 DUP2 DUP4 SUB SUB DUP2 MSTORE SWAP1 PUSH1 0x40 MSTORE PUSH4 0x1626BA7E PUSH1 0xE0 SHL PUSH1 0x20 DUP3 ADD DUP1 MLOAD PUSH28 0xFFFFFFFFFFFFFFFFFFFFFFFFFFFFFFFFFFFFFFFFFFFFFFFFFFFFFFFF DUP4 DUP2 DUP4 AND OR DUP4 MSTORE POP POP POP POP PUSH1 0x40 MLOAD PUSH2 0x773 SWAP2 SWAP1 PUSH2 0x1207 JUMP JUMPDEST PUSH0 PUSH1 0x40 MLOAD DUP1 DUP4 SUB DUP2 DUP6 GAS STATICCALL SWAP2 POP POP RETURNDATASIZE DUP1 PUSH0 DUP2 EQ PUSH2 0x7AB JUMPI PUSH1 0x40 MLOAD SWAP2 POP PUSH1 0x1F NOT PUSH1 0x3F RETURNDATASIZE ADD AND DUP3 ADD PUSH1 0x40 MSTORE RETURNDATASIZE DUP3 MSTORE RETURNDATASIZE PUSH0 PUSH1 0x20 DUP5 ADD RETURNDATACOPY PUSH2 0x7B0 JUMP JUMPDEST PUSH1 0x60 SWAP2 POP JUMPDEST POP SWAP2 POP SWAP2 POP DUP2 DUP1 ISZERO PUSH2 0x7C4 JUMPI POP PUSH1 0x20 DUP2 MLOAD LT ISZERO JUMPDEST DUP1 ISZERO PUSH2 0x808 JUMPI POP PUSH4 0x1626BA7E PUSH1 0xE0 SHL PUSH28 0xFFFFFFFFFFFFFFFFFFFFFFFFFFFFFFFFFFFFFFFFFFFFFFFFFFFFFFFF NOT AND DUP2 DUP1 PUSH1 0x20 ADD SWAP1 MLOAD DUP2 ADD SWAP1 PUSH2 0x806 SWAP2 SWAP1 PUSH2 0x1231 JUMP JUMPDEST EQ JUMPDEST SWAP3 POP POP POP SWAP4 SWAP3 POP POP POP JUMP JUMPDEST PUSH0 DUP1 PUSH0 PUSH32 0x7FFFFFFFFFFFFFFFFFFFFFFFFFFFFFFF5D576E7357A4501DDFE92F46681B20A0 DUP5 PUSH0 SHR GT ISZERO PUSH2 0x84F JUMPI PUSH0 PUSH1 0x3 DUP6 SWAP3 POP SWAP3 POP SWAP3 POP PUSH2 0x8F0 JUMP JUMPDEST PUSH0 PUSH1 0x1 DUP9 DUP9 DUP9 DUP9 PUSH1 0x40 MLOAD PUSH0 DUP2 MSTORE PUSH1 0x20 ADD PUSH1 0x40 MSTORE PUSH1 0x40 MLOAD PUSH2 0x872 SWAP5 SWAP4 SWAP3 SWAP2 SWAP1 PUSH2 0x126B JUMP JUMPDEST PUSH1 0x20 PUSH1 0x40 MLOAD PUSH1 0x20 DUP2 SUB SWAP1 DUP1 DUP5 SUB SWAP1 DUP6 GAS STATICCALL ISZERO DUP1 ISZERO PUSH2 0x892 JUMPI RETURNDATASIZE PUSH0 DUP1 RETURNDATACOPY RETURNDATASIZE PUSH0 REVERT JUMPDEST POP POP POP PUSH1 0x20 PUSH1 0x40 MLOAD SUB MLOAD SWAP1 POP PUSH0 PUSH20 0xFFFFFFFFFFFFFFFFFFFFFFFFFFFFFFFFFFFFFFFF AND DUP2 PUSH20 0xFFFFFFFFFFFFFFFFFFFFFFFFFFFFFFFFFFFFFFFF AND SUB PUSH2 0x8E3 JUMPI PUSH0 PUSH1 0x1 PUSH0 DUP1 SHL SWAP4 POP SWAP4 POP SWAP4 POP POP PUSH2 0x8F0 JUMP JUMPDEST DUP1 PUSH0 DUP1 PUSH0 SHL SWAP4 POP SWAP4 POP SWAP4 POP POP JUMPDEST SWAP5 POP SWAP5 POP SWAP5 SWAP2 POP POP JUMP JUMPDEST PUSH0 PUSH1 0x40 MLOAD SWAP1 POP SWAP1 JUMP JUMPDEST PUSH0 DUP1 REVERT JUMPDEST PUSH0 DUP1 REVERT JUMPDEST PUSH0 PUSH32 0xFFFFFFFF00000000000000000000000000000000000000000000000000000000 DUP3 AND SWAP1 POP SWAP2 SWAP1 POP JUMP JUMPDEST PUSH2 0x93F DUP2 PUSH2 0x90B JUMP JUMPDEST DUP2 EQ PUSH2 0x949 JUMPI PUSH0 DUP1 REVERT JUMPDEST POP JUMP JUMPDEST PUSH0 DUP2 CALLDATALOAD SWAP1 POP PUSH2 0x95A DUP2 PUSH2 0x936 JUMP JUMPDEST SWAP3 SWAP2 POP POP JUMP JUMPDEST PUSH0 PUSH1 0x20 DUP3 DUP5 SUB SLT ISZERO PUSH2 0x975 JUMPI PUSH2 0x974 PUSH2 0x903 JUMP JUMPDEST JUMPDEST PUSH0 PUSH2 0x982 DUP5 DUP3 DUP6 ADD PUSH2 0x94C JUMP JUMPDEST SWAP2 POP POP SWAP3 SWAP2 POP POP JUMP JUMPDEST PUSH0 DUP2 ISZERO ISZERO SWAP1 POP SWAP2 SWAP1 POP JUMP JUMPDEST PUSH2 0x99F DUP2 PUSH2 0x98B JUMP JUMPDEST DUP3 MSTORE POP POP JUMP JUMPDEST PUSH0 PUSH1 0x20 DUP3 ADD SWAP1 POP PUSH2 0x9B8 PUSH0 DUP4 ADD DUP5 PUSH2 0x996 JUMP JUMPDEST SWAP3 SWAP2 POP POP JUMP JUMPDEST PUSH0 DUP2 SWAP1 POP SWAP2 SWAP1 POP JUMP JUMPDEST PUSH2 0x9D0 DUP2 PUSH2 0x9BE JUMP JUMPDEST DUP2 EQ PUSH2 0x9DA JUMPI PUSH0 DUP1 REVERT JUMPDEST POP JUMP JUMPDEST PUSH0 DUP2 CALLDATALOAD SWAP1 POP PUSH2 0x9EB DUP2 PUSH2 0x9C7 JUMP JUMPDEST SWAP3 SWAP2 POP POP JUMP JUMPDEST PUSH0 DUP1 REVERT JUMPDEST PUSH0 DUP1 REVERT JUMPDEST PUSH0 PUSH1 0x1F NOT PUSH1 0x1F DUP4 ADD AND SWAP1 POP SWAP2 SWAP1 POP JUMP JUMPDEST PUSH32 0x4E487B7100000000000000000000000000000000000000000000000000000000 PUSH0 MSTORE PUSH1 0x41 PUSH1 0x4 MSTORE PUSH1 0x24 PUSH0 REVERT JUMPDEST PUSH2 0xA3F DUP3 PUSH2 0x9F9 JUMP JUMPDEST DUP2 ADD DUP2 DUP2 LT PUSH8 0xFFFFFFFFFFFFFFFF DUP3 GT OR ISZERO PUSH2 0xA5E JUMPI PUSH2 0xA5D PUSH2 0xA09 JUMP JUMPDEST JUMPDEST DUP1 PUSH1 0x40 MSTORE POP POP POP JUMP JUMPDEST PUSH0 PUSH2 0xA70 PUSH2 0x8FA JUMP JUMPDEST SWAP1 POP PUSH2 0xA7C DUP3 DUP3 PUSH2 0xA36 JUMP JUMPDEST SWAP2 SWAP1 POP JUMP JUMPDEST PUSH0 PUSH8 0xFFFFFFFFFFFFFFFF DUP3 GT ISZERO PUSH2 0xA9B JUMPI PUSH2 0xA9A PUSH2 0xA09 JUMP JUMPDEST JUMPDEST PUSH2 0xAA4 DUP3 PUSH2 0x9F9 JUMP JUMPDEST SWAP1 POP PUSH1 0x20 DUP2 ADD SWAP1 POP SWAP2 SWAP1 POP JUMP JUMPDEST DUP3 DUP2 DUP4 CALLDATACOPY PUSH0 DUP4 DUP4 ADD MSTORE POP POP POP JUMP JUMPDEST PUSH0 PUSH2 0xAD1 PUSH2 0xACC DUP5 PUSH2 0xA81 JUMP JUMPDEST PUSH2 0xA67 JUMP JUMPDEST SWAP1 POP DUP3 DUP2 MSTORE PUSH1 0x20 DUP2 ADD DUP5 DUP5 DUP5 ADD GT ISZERO PUSH2 0xAED JUMPI PUSH2 0xAEC PUSH2 0x9F5 JUMP JUMPDEST JUMPDEST PUSH2 0xAF8 DUP5 DUP3 DUP6 PUSH2 0xAB1 JUMP JUMPDEST POP SWAP4 SWAP3 POP POP POP JUMP JUMPDEST PUSH0 DUP3 PUSH1 0x1F DUP4 ADD SLT PUSH2 0xB14 JUMPI PUSH2 0xB13 PUSH2 0x9F1 JUMP JUMPDEST JUMPDEST DUP2 CALLDATALOAD PUSH2 0xB24 DUP5 DUP3 PUSH1 0x20 DUP7 ADD PUSH2 0xABF JUMP JUMPDEST SWAP2 POP POP SWAP3 SWAP2 POP POP JUMP JUMPDEST PUSH0 DUP1 PUSH1 0x40 DUP4 DUP6 SUB SLT ISZERO PUSH2 0xB43 JUMPI PUSH2 0xB42 PUSH2 0x903 JUMP JUMPDEST JUMPDEST PUSH0 PUSH2 0xB50 DUP6 DUP3 DUP7 ADD PUSH2 0x9DD JUMP JUMPDEST SWAP3 POP POP PUSH1 0x20 DUP4 ADD CALLDATALOAD PUSH8 0xFFFFFFFFFFFFFFFF DUP2 GT ISZERO PUSH2 0xB71 JUMPI PUSH2 0xB70 PUSH2 0x907 JUMP JUMPDEST JUMPDEST PUSH2 0xB7D DUP6 DUP3 DUP7 ADD PUSH2 0xB00 JUMP JUMPDEST SWAP2 POP POP SWAP3 POP SWAP3 SWAP1 POP JUMP JUMPDEST PUSH2 0xB90 DUP2 PUSH2 0x90B JUMP JUMPDEST DUP3 MSTORE POP POP JUMP JUMPDEST PUSH0 PUSH1 0x20 DUP3 ADD SWAP1 POP PUSH2 0xBA9 PUSH0 DUP4 ADD DUP5 PUSH2 0xB87 JUMP JUMPDEST SWAP3 SWAP2 POP POP JUMP JUMPDEST PUSH0 PUSH20 0xFFFFFFFFFFFFFFFFFFFFFFFFFFFFFFFFFFFFFFFF DUP3 AND SWAP1 POP SWAP2 SWAP1 POP JUMP JUMPDEST PUSH0 PUSH2 0xBD8 DUP3 PUSH2 0xBAF JUMP JUMPDEST SWAP1 POP SWAP2 SWAP1 POP JUMP JUMPDEST PUSH2 0xBE8 DUP2 PUSH2 0xBCE JUMP JUMPDEST DUP2 EQ PUSH2 0xBF2 JUMPI PUSH0 DUP1 REVERT JUMPDEST POP JUMP JUMPDEST PUSH0 DUP2 CALLDATALOAD SWAP1 POP PUSH2 0xC03 DUP2 PUSH2 0xBDF JUMP JUMPDEST SWAP3 SWAP2 POP POP JUMP JUMPDEST PUSH0 DUP2 SWAP1 POP SWAP2 SWAP1 POP JUMP JUMPDEST PUSH2 0xC1B DUP2 PUSH2 0xC09 JUMP JUMPDEST DUP2 EQ PUSH2 0xC25 JUMPI PUSH0 DUP1 REVERT JUMPDEST POP JUMP JUMPDEST PUSH0 DUP2 CALLDATALOAD SWAP1 POP PUSH2 0xC36 DUP2 PUSH2 0xC12 JUMP JUMPDEST SWAP3 SWAP2 POP POP JUMP JUMPDEST PUSH0 DUP1 REVERT JUMPDEST PUSH0 DUP1 REVERT JUMPDEST PUSH0 DUP1 DUP4 PUSH1 0x1F DUP5 ADD SLT PUSH2 0xC59 JUMPI PUSH2 0xC58 PUSH2 0x9F1 JUMP JUMPDEST JUMPDEST DUP3 CALLDATALOAD SWAP1 POP PUSH8 0xFFFFFFFFFFFFFFFF DUP2 GT ISZERO PUSH2 0xC76 JUMPI PUSH2 0xC75 PUSH2 0xC3C JUMP JUMPDEST JUMPDEST PUSH1 0x20 DUP4 ADD SWAP2 POP DUP4 PUSH1 0x1 DUP3 MUL DUP4 ADD GT ISZERO PUSH2 0xC92 JUMPI PUSH2 0xC91 PUSH2 0xC40 JUMP JUMPDEST JUMPDEST SWAP3 POP SWAP3 SWAP1 POP JUMP JUMPDEST PUSH0 PUSH1 0xFF DUP3 AND SWAP1 POP SWAP2 SWAP1 POP JUMP JUMPDEST PUSH2 0xCAE DUP2 PUSH2 0xC99 JUMP JUMPDEST DUP2 EQ PUSH2 0xCB8 JUMPI PUSH0 DUP1 REVERT JUMPDEST POP JUMP JUMPDEST PUSH0 DUP2 CALLDATALOAD SWAP1 POP PUSH2 0xCC9 DUP2 PUSH2 0xCA5 JUMP JUMPDEST SWAP3 SWAP2 POP POP JUMP JUMPDEST PUSH0 DUP1 PUSH0 DUP1 PUSH0 PUSH1 0x80 DUP7 DUP9 SUB SLT ISZERO PUSH2 0xCE8 JUMPI PUSH2 0xCE7 PUSH2 0x903 JUMP JUMPDEST JUMPDEST PUSH0 PUSH2 0xCF5 DUP9 DUP3 DUP10 ADD PUSH2 0xBF5 JUMP JUMPDEST SWAP6 POP POP PUSH1 0x20 PUSH2 0xD06 DUP9 DUP3 DUP10 ADD PUSH2 0xC28 JUMP JUMPDEST SWAP5 POP POP PUSH1 0x40 DUP7 ADD CALLDATALOAD PUSH8 0xFFFFFFFFFFFFFFFF DUP2 GT ISZERO PUSH2 0xD27 JUMPI PUSH2 0xD26 PUSH2 0x907 JUMP JUMPDEST JUMPDEST PUSH2 0xD33 DUP9 DUP3 DUP10 ADD PUSH2 0xC44 JUMP JUMPDEST SWAP4 POP SWAP4 POP POP PUSH1 0x60 PUSH2 0xD46 DUP9 DUP3 DUP10 ADD PUSH2 0xCBB JUMP JUMPDEST SWAP2 POP POP SWAP3 SWAP6 POP SWAP3 SWAP6 SWAP1 SWAP4 POP JUMP JUMPDEST PUSH0 DUP2 MLOAD SWAP1 POP SWAP2 SWAP1 POP JUMP JUMPDEST PUSH0 DUP3 DUP3 MSTORE PUSH1 0x20 DUP3 ADD SWAP1 POP SWAP3 SWAP2 POP POP JUMP JUMPDEST PUSH0 JUMPDEST DUP4 DUP2 LT ISZERO PUSH2 0xD8A JUMPI DUP1 DUP3 ADD MLOAD DUP2 DUP5 ADD MSTORE PUSH1 0x20 DUP2 ADD SWAP1 POP PUSH2 0xD6F JUMP JUMPDEST PUSH0 DUP5 DUP5 ADD MSTORE POP POP POP POP JUMP JUMPDEST PUSH0 PUSH2 0xD9F DUP3 PUSH2 0xD53 JUMP JUMPDEST PUSH2 0xDA9 DUP2 DUP6 PUSH2 0xD5D JUMP JUMPDEST SWAP4 POP PUSH2 0xDB9 DUP2 DUP6 PUSH1 0x20 DUP7 ADD PUSH2 0xD6D JUMP JUMPDEST PUSH2 0xDC2 DUP2 PUSH2 0x9F9 JUMP JUMPDEST DUP5 ADD SWAP2 POP POP SWAP3 SWAP2 POP POP JUMP JUMPDEST PUSH0 PUSH1 0x20 DUP3 ADD SWAP1 POP DUP2 DUP2 SUB PUSH0 DUP4 ADD MSTORE PUSH2 0xDE5 DUP2 DUP5 PUSH2 0xD95 JUMP JUMPDEST SWAP1 POP SWAP3 SWAP2 POP POP JUMP JUMPDEST PUSH0 DUP1 PUSH0 PUSH1 0x40 DUP5 DUP7 SUB SLT ISZERO PUSH2 0xE04 JUMPI PUSH2 0xE03 PUSH2 0x903 JUMP JUMPDEST JUMPDEST PUSH0 PUSH2 0xE11 DUP7 DUP3 DUP8 ADD PUSH2 0xBF5 JUMP JUMPDEST SWAP4 POP POP PUSH1 0x20 DUP5 ADD CALLDATALOAD PUSH8 0xFFFFFFFFFFFFFFFF DUP2 GT ISZERO PUSH2 0xE32 JUMPI PUSH2 0xE31 PUSH2 0x907 JUMP JUMPDEST JUMPDEST PUSH2 0xE3E DUP7 DUP3 DUP8 ADD PUSH2 0xC44 JUMP JUMPDEST SWAP3 POP SWAP3 POP POP SWAP3 POP SWAP3 POP SWAP3 JUMP JUMPDEST PUSH2 0xE53 DUP2 PUSH2 0xBCE JUMP JUMPDEST DUP3 MSTORE POP POP JUMP JUMPDEST PUSH0 PUSH1 0x20 DUP3 ADD SWAP1 POP PUSH2 0xE6C PUSH0 DUP4 ADD DUP5 PUSH2 0xE4A JUMP JUMPDEST SWAP3 SWAP2 POP POP JUMP JUMPDEST PUSH2 0xE7B DUP2 PUSH2 0xC09 JUMP JUMPDEST DUP3 MSTORE POP POP JUMP JUMPDEST PUSH0 PUSH1 0x20 DUP3 ADD SWAP1 POP PUSH2 0xE94 PUSH0 DUP4 ADD DUP5 PUSH2 0xE72 JUMP JUMPDEST SWAP3 SWAP2 POP POP JUMP JUMPDEST PUSH0 PUSH1 0x60 DUP3 ADD SWAP1 POP PUSH2 0xEAD PUSH0 DUP4 ADD DUP7 PUSH2 0xE72 JUMP JUMPDEST PUSH2 0xEBA PUSH1 0x20 DUP4 ADD DUP6 PUSH2 0xE4A JUMP JUMPDEST PUSH2 0xEC7 PUSH1 0x40 DUP4 ADD DUP5 PUSH2 0xE72 JUMP JUMPDEST SWAP5 SWAP4 POP POP POP POP JUMP JUMPDEST PUSH0 DUP3 DUP3 MSTORE PUSH1 0x20 DUP3 ADD SWAP1 POP SWAP3 SWAP2 POP POP JUMP JUMPDEST PUSH32 0x496E76616C6964207369676E6572000000000000000000000000000000000000 PUSH0 DUP3 ADD MSTORE POP JUMP JUMPDEST PUSH0 PUSH2 0xF13 PUSH1 0xE DUP4 PUSH2 0xECF JUMP JUMPDEST SWAP2 POP PUSH2 0xF1E DUP3 PUSH2 0xEDF JUMP JUMPDEST PUSH1 0x20 DUP3 ADD SWAP1 POP SWAP2 SWAP1 POP JUMP JUMPDEST PUSH0 PUSH1 0x20 DUP3 ADD SWAP1 POP DUP2 DUP2 SUB PUSH0 DUP4 ADD MSTORE PUSH2 0xF40 DUP2 PUSH2 0xF07 JUMP JUMPDEST SWAP1 POP SWAP2 SWAP1 POP JUMP JUMPDEST PUSH32 0x4F6E6C792063616C6C206F7065726174696F6E732061726520737570706F7274 PUSH0 DUP3 ADD MSTORE PUSH32 0x6564000000000000000000000000000000000000000000000000000000000000 PUSH1 0x20 DUP3 ADD MSTORE POP JUMP JUMPDEST PUSH0 PUSH2 0xFA1 PUSH1 0x22 DUP4 PUSH2 0xECF JUMP JUMPDEST SWAP2 POP PUSH2 0xFAC DUP3 PUSH2 0xF47 JUMP JUMPDEST PUSH1 0x40 DUP3 ADD SWAP1 POP SWAP2 SWAP1 POP JUMP JUMPDEST PUSH0 PUSH1 0x20 DUP3 ADD SWAP1 POP DUP2 DUP2 SUB PUSH0 DUP4 ADD MSTORE PUSH2 0xFCE DUP2 PUSH2 0xF95 JUMP JUMPDEST SWAP1 POP SWAP2 SWAP1 POP JUMP JUMPDEST PUSH32 0x4E487B7100000000000000000000000000000000000000000000000000000000 PUSH0 MSTORE PUSH1 0x11 PUSH1 0x4 MSTORE PUSH1 0x24 PUSH0 REVERT JUMPDEST PUSH0 PUSH2 0x100C DUP3 PUSH2 0xC09 JUMP JUMPDEST SWAP2 POP PUSH32 0xFFFFFFFFFFFFFFFFFFFFFFFFFFFFFFFFFFFFFFFFFFFFFFFFFFFFFFFFFFFFFFFF DUP3 SUB PUSH2 0x103E JUMPI PUSH2 0x103D PUSH2 0xFD5 JUMP JUMPDEST JUMPDEST PUSH1 0x1 DUP3 ADD SWAP1 POP SWAP2 SWAP1 POP JUMP JUMPDEST PUSH0 DUP2 SWAP1 POP SWAP3 SWAP2 POP POP JUMP JUMPDEST PUSH0 PUSH2 0x105E DUP4 DUP6 PUSH2 0x1049 JUMP JUMPDEST SWAP4 POP PUSH2 0x106B DUP4 DUP6 DUP5 PUSH2 0xAB1 JUMP JUMPDEST DUP3 DUP5 ADD SWAP1 POP SWAP4 SWAP3 POP POP POP JUMP JUMPDEST PUSH0 PUSH2 0x1083 DUP3 DUP5 DUP7 PUSH2 0x1053 JUMP JUMPDEST SWAP2 POP DUP2 SWAP1 POP SWAP4 SWAP3 POP POP POP JUMP JUMPDEST PUSH0 DUP2 MLOAD SWAP1 POP PUSH2 0x109D DUP2 PUSH2 0xBDF JUMP JUMPDEST SWAP3 SWAP2 POP POP JUMP JUMPDEST PUSH0 PUSH1 0x20 DUP3 DUP5 SUB SLT ISZERO PUSH2 0x10B8 JUMPI PUSH2 0x10B7 PUSH2 0x903 JUMP JUMPDEST JUMPDEST PUSH0 PUSH2 0x10C5 DUP5 DUP3 DUP6 ADD PUSH2 0x108F JUMP JUMPDEST SWAP2 POP POP SWAP3 SWAP2 POP POP JUMP JUMPDEST PUSH0 DUP2 MLOAD SWAP1 POP PUSH2 0x10DC DUP2 PUSH2 0xC12 JUMP JUMPDEST SWAP3 SWAP2 POP POP JUMP JUMPDEST PUSH0 PUSH2 0x10EC DUP3 PUSH2 0xBAF JUMP JUMPDEST SWAP1 POP SWAP2 SWAP1 POP JUMP JUMPDEST PUSH2 0x10FC DUP2 PUSH2 0x10E2 JUMP JUMPDEST DUP2 EQ PUSH2 0x1106 JUMPI PUSH0 DUP1 REVERT JUMPDEST POP JUMP JUMPDEST PUSH0 DUP2 MLOAD SWAP1 POP PUSH2 0x1117 DUP2 PUSH2 0x10F3 JUMP JUMPDEST SWAP3 SWAP2 POP POP JUMP JUMPDEST PUSH0 DUP1 PUSH0 PUSH1 0x60 DUP5 DUP7 SUB SLT ISZERO PUSH2 0x1134 JUMPI PUSH2 0x1133 PUSH2 0x903 JUMP JUMPDEST JUMPDEST PUSH0 PUSH2 0x1141 DUP7 DUP3 DUP8 ADD PUSH2 0x10CE JUMP JUMPDEST SWAP4 POP POP PUSH1 0x20 PUSH2 0x1152 DUP7 DUP3 DUP8 ADD PUSH2 0x1109 JUMP JUMPDEST SWAP3 POP POP PUSH1 0x40 PUSH2 0x1163 DUP7 DUP3 DUP8 ADD PUSH2 0x10CE JUMP JUMPDEST SWAP2 POP POP SWAP3 POP SWAP3 POP SWAP3 JUMP JUMPDEST PUSH32 0x4E487B7100000000000000000000000000000000000000000000000000000000 PUSH0 MSTORE PUSH1 0x21 PUSH1 0x4 MSTORE PUSH1 0x24 PUSH0 REVERT JUMPDEST PUSH2 0x11A3 DUP2 PUSH2 0x9BE JUMP JUMPDEST DUP3 MSTORE POP POP JUMP JUMPDEST PUSH0 PUSH1 0x40 DUP3 ADD SWAP1 POP PUSH2 0x11BC PUSH0 DUP4 ADD DUP6 PUSH2 0x119A JUMP JUMPDEST DUP2 DUP2 SUB PUSH1 0x20 DUP4 ADD MSTORE PUSH2 0x11CE DUP2 DUP5 PUSH2 0xD95 JUMP JUMPDEST SWAP1 POP SWAP4 SWAP3 POP POP POP JUMP JUMPDEST PUSH0 PUSH2 0x11E1 DUP3 PUSH2 0xD53 JUMP JUMPDEST PUSH2 0x11EB DUP2 DUP6 PUSH2 0x1049 JUMP JUMPDEST SWAP4 POP PUSH2 0x11FB DUP2 DUP6 PUSH1 0x20 DUP7 ADD PUSH2 0xD6D JUMP JUMPDEST DUP1 DUP5 ADD SWAP2 POP POP SWAP3 SWAP2 POP POP JUMP JUMPDEST PUSH0 PUSH2 0x1212 DUP3 DUP5 PUSH2 0x11D7 JUMP JUMPDEST SWAP2 POP DUP2 SWAP1 POP SWAP3 SWAP2 POP POP JUMP JUMPDEST PUSH0 DUP2 MLOAD SWAP1 POP PUSH2 0x122B DUP2 PUSH2 0x9C7 JUMP JUMPDEST SWAP3 SWAP2 POP POP JUMP JUMPDEST PUSH0 PUSH1 0x20 DUP3 DUP5 SUB SLT ISZERO PUSH2 0x1246 JUMPI PUSH2 0x1245 PUSH2 0x903 JUMP JUMPDEST JUMPDEST PUSH0 PUSH2 0x1253 DUP5 DUP3 DUP6 ADD PUSH2 0x121D JUMP JUMPDEST SWAP2 POP POP SWAP3 SWAP2 POP POP JUMP JUMPDEST PUSH2 0x1265 DUP2 PUSH2 0xC99 JUMP JUMPDEST DUP3 MSTORE POP POP JUMP JUMPDEST PUSH0 PUSH1 0x80 DUP3 ADD SWAP1 POP PUSH2 0x127E PUSH0 DUP4 ADD DUP8 PUSH2 0x119A JUMP JUMPDEST PUSH2 0x128B PUSH1 0x20 DUP4 ADD DUP7 PUSH2 0x125C JUMP JUMPDEST PUSH2 0x1298 PUSH1 0x40 DUP4 ADD DUP6 PUSH2 0x119A JUMP JUMPDEST PUSH2 0x12A5 PUSH1 0x60 DUP4 ADD DUP5 PUSH2 0x119A JUMP JUMPDEST SWAP6 SWAP5 POP POP POP POP POP JUMP INVALID LOG2 PUSH5 0x6970667358 0x22 SLT KECCAK256 LT PUSH23 0x7256E9F6D032A5C89DBB2DDAC2FE16178BE31B65704267 JUMP 0x4B 0xB3 SGT SHR SWAP9 CALLCODE PUSH5 0x736F6C6343 STOP ADDMOD OR STOP CALLER "
				},
				"gasEstimates": {
					"creation": {
						"codeDepositCost": "967200",
						"executionCost": "1006",
						"totalCost": "968206"
					},
					"external": {
						"execute(address,uint256,bytes,uint8)": "infinite",
						"isValidSignature(bytes32,bytes)": "infinite",
						"isValidSigner(address,bytes)": "infinite",
						"owner()": "infinite",
						"state()": "2468",
						"supportsInterface(bytes4)": "722",
						"token()": "infinite"
					},
					"internal": {
						"_isValidSigner(address)": "infinite"
					}
				},
				"methodIdentifiers": {
					"execute(address,uint256,bytes,uint8)": "51945447",
					"isValidSignature(bytes32,bytes)": "1626ba7e",
					"isValidSigner(address,bytes)": "523e3260",
					"owner()": "8da5cb5b",
					"state()": "c19d93fb",
					"supportsInterface(bytes4)": "01ffc9a7",
					"token()": "fc0c546a"
				}
			},
			"storageLayout": {
				"storage": [
					{
						"astId": 648,
						"contract": "Token bound account/ERC6551Account.sol:ERC6551Account",
						"label": "state",
						"offset": 0,
						"slot": "0",
						"type": "t_uint256"
					}
				],
				"types": {
					"t_uint256": {
						"encoding": "inplace",
						"label": "uint256",
						"numberOfBytes": "32"
					}
				}
			},
			"userdoc": {
				"kind": "user",
				"methods": {},
				"version": 1
			}
		}
	}
}